S01B00004D6F6E73746572547275636B2D42542D5053332E7372656352
S11300000C945F060C947C060C947C060C947C0681
S11300100C947C060C947C060C947E060C947C0652
S11300200C947C060C947C060C947C060C947C0644
S11300300C947C060C947C060C947C060C947C0634
S11300400C947C060C947C060C94D3130C947C06C0
S11300500C947C060C947C060C947C060C947C0614
S11300600C947C060C947C060C947C060C947C0604
S11300700C947C060C94A9140C947C060C947C06B9
S11300800C947C060C947C060C947C060C947C06E4
S11300900C947C060C947C060C947C060C947C06D4
S11300A00C947C060C94E3140C947C060C947C064F
S11300B00C947C06F409100ADD0A3C0B100BE40BCB
S11300C01D0B510C390C840C840C570C450CAD09D8
S11300D0E409840C840C1F0C190C840C840CB40BE0
S11300E0DB0B4B0C2D0C330C3F0C840C6E0C840C72
S11300F0840C250C150D310D990DAD0DD90DF10D97
S11301007E0D080E2A0E7A0E9A0EC20EDD0EF80E21
S1130110BE0F881041105B10301008101D1088109D
S1130120AB0FF70F0D0A48434920446973636F6EA0
S11301306E65637465642066726F6D2044657669CC
S11301406365000D0A5061636B6574207479706592
S1130150206368616E676564000D0A5265636569B2
S11301607665642052656D6F7465204E616D65001F
S11301700D0A52656365697665642052656D6F7416
S1130180652056657273696F6E000D0A506167656C
S1130190205363616E2052657065746974696F6E73
S11301A0204D6F6465204368616E67652045766500
S11301B06E74003A000D0A436F6E6E656374656475
S11301C020746F204465766963653A20000D0A57F0
S11301D0726974652061757468656E7469636174AD
S11301E0696F6E20456E61626C6564000D0A505340
S11301F03420636F6E74726F6C6C65722069732047
S1130200636F6E6E656374696E6700202D20576995
S1130210692042616C616E636520426F61726400A3
S1130220202D2057696920552050726F20436F6E2E
S113023074726F6C6C6572002077697468204D6FFE
S113024074696F6E20506C757320496E73696465B0
S1130250000D0A5769696D6F746520697320636FB7
S11302606E6E656374696E67000D0A52656D6F7416
S113027065204E616D653A20000D0A496E636F6D0D
S1130280696E6720436F6E6E656374696F6E20528A
S1130290657175657374000D0A5761697420466F42
S11302A07220496E636F6D696E6720436F6E6E6571
S11302B06374696F6E2052657175657374000D0AFD
S11302C0547279696E6720746F20636F6E6E656314
S11302D074206F6E65206D6F72652074696D652E74
S11302E02E2E000D0A436F6E6E6563746564207470
S11302F06F2048494420646576696365000D0A43AC
S11303006F6E6E656374656420746F205769696DE0
S11303106F7465000D0A436F6E6E656374696E6772
S113032020746F2048494420646576696365000D34
S11303300A436F6E6E656374696E6720746F20572D
S113034069696D6F746500646576696365005769F2
S1130350696D6F7465000D0A416E64207468656E82
S113036020707265737320616E7920627574746F86
S11303706E206F6E2074686520000D0A425448494F
S1130380442062746869642826427464293B000D21
S11303900A574949205769692826427464293B0051
S11303A00D0A4E6F77206A757374206372656174E9
S11303B0652074686520696E7374616E6365206C72
S11303C0696B6520736F3A000D0A484944206465DF
S11303D07669636520666F756E64000D0A576969F6
S11303E06D6F746520666F756E64000D0A506C65E0
S11303F061736520656E61626C6520646973636F07
S113040076657279206F6620796F757220646576DF
S1130410696365000D0A5374617274696E672069BB
S11304206E71756972790D0A50726573732031208B
S1130430262032206F6E20746865205769696D6FBD
S113044074650D0A4F722070726573732074686549
S11304502053594E4320627574746F6E2069662070
S1130460796F7520617265207573696E67206120EC
S113047057696920552050726F20436F6E74726FF4
S11304806C6C6572206F722061205769692042612B
S11304906C616E636520426F617264000D0A54687A
S11304A065206E616D652069732073657420746FB7
S11304B03A20003A000D0A4C6F63616C20426C755F
S11304C065746F6F746820416464726573733A2055
S11304D0000D0A577269746520636C617373206F31
S11304E06620646576696365000D0A5772697465F0
S11304F02061636365737320656E61626C6564007B
S11305000D0A4E6F20726573706F6E736520746F81
S113051020484349205265736574000D0A484349D5
S113052020526573657420636F6D706C657465002B
S11305300D0A556E6D616E616765642048434920FC
S11305404576656E743A20000D0A4368616E6765EE
S1130550205061636B6574207479706520666169ED
S11305606C6564000D0A4368616E676520506163C1
S11305706B65742074797065207375636365737338
S113058066756C000D0A526561642072656D6F7446
S1130590652076657273696F6E206661696C656447
S11305A0000D0A526561642072656D6F7465207672
S11305B0657273696F6E20636F6D706C657465002E
S11305C00D0A456E6372797074696F6E20436861B9
S11305D06E6765204576656E74000D0A4C696E6B16
S11305E0206B6579206E6F74696669636174696FE5
S11305F06E206576656E74000D0A514F5320536565
S113060074757020436F6D706C65746520457665F4
S11306106E74000D0A4D617820736C6F74732063DF
S113062068616E676564206576656E74000D0A43C3
S113063068616E676520436F6E6E656374696F6E83
S1130640204C696E6B204576656E74000D0A44611A
S1130650746120427566666572204F766572666CB9
S11306606F77204576656E74000D0A4C6F6F70428B
S113067061636B20436F6D6D616E64000D0A526F90
S11306806C65204368616E676564000D0A4E756D84
S113069020436F6D706C657465205061636B657485
S11306A0000D0A50616972696E67204661696C6564
S11306B0643A20000D0A50616972696E672073758F
S11306C0636365737366756C207769746820484941
S11306D04420646576696365000D0A506169726936
S11306E06E67207375636365737366756C207769D1
S11306F07468205769696D6F7465000D0A526563EB
S11307006569766564204B657920526571756573FA
S113071074000D0A4E6F2070696E20776173207328
S11307206574000D0A426C7565746F6F746820708F
S1130730696E2069732073657420746F6F3A2000AA
S11307400D0A50616972696E672077697468205771
S113075069696D6F746500200020000D0A436C61A7
S11307607373206F66206465766963653A20000DB3
S11307700A47616D6570616420697320636F6E6EF2
S1130780656374696E67000D0A4B6579626F617207
S11307906420697320636F6E6E656374696E6700AD
S11307A00D0A4D6F75736520697320636F6E6E65F6
S11307B06374696E67000D0A436F6E6E65637469D6
S11307C06F6E204661696C65643A20000D0A436FC0
S11307D06E6E656374696F6E2065737461626C69B3
S11307E073686564000D0A47616D65706164206615
S11307F06F756E64000D0A4B6579626F61726420D7
S1130800666F756E64000D0A4D6F75736520666FB3
S1130810756E6400200020000D0A436C6173732020
S11308206F66206465766963653A20000D0A4E752B
S11308306D626572206F6620726573706F6E73658A
S1130840733A20000D0A436F756C646E277420663A
S1130850696E642048494420646576696365000DC7
S11308600A436F756C646E27742066696E64205742
S113087069696D6F7465000D0A48434920436F6DC3
S11308806D616E64204661696C65643A2000000005
S1130890000000000000010101010101010101014A
S11308A00101010101020202020202020202030327
S11308B003030303040404040405050505060606EE
S11308C007070708080809090A0A0B0B0C0C0D0D89
S11308D00E0F0F10111112131415161718191A1BD5
S11308E01C1D1F202123242627292B2C2E30323493
S11308F036383A3C3E404345474A4C4F5154575989
S11309005C5F6264676A6D707376797C7F828588C8
S11309108B8E9194979A9C9FA2A5A7AAADAFB2B4CF
S1130920B7B9BBBEC0C2C4C6C8CACCCED0D2D3D558
S1130930D7D8DADBDDDEDFE1E2E3E4E5E6E7E8E9A8
S1130940EAEBECEDEDEEEFEFF0F1F1F2F2F3F3F4AC
S1130950F4F5F5F6F6F6F7F7F7F8F8F8F9F9F9F922
S1130960FAFAFAFAFAFBFBFBFBFBFBFCFCFCFCFCD3
S1130970FCFCFCFCFDFDFDFDFDFDFDFDFDFDFDFDA7
S1130980FDFDFDFEFEFEFEFEFEFEFFFF5053204277
S11309907574746F6E000D0A4D6F74696F6E204329
S11309A06F6E74726F6C6C657220456E61626C65FB
S11309B0640D0A000D0A4E617669676174696F6E91
S11309C020436F6E74726F6C6C657220456E616249
S11309D06C65640D0A000D0A4475616C73686F637D
S11309E06B203320436F6E74726F6C6C657220459C
S11309F06E61626C65640D0A000D0A446973636F6D
S1130A006E6E656374656420436F6E74726F6C20E0
S1130A104368616E6E656C000D0A446973636F6EA2
S1130A206E656374656420496E7465727275707462
S1130A30204368616E6E656C000D0A484944204984
S1130A406E74657272757074205375636365737325
S1130A5066756C6C7920436F6E6669677572656440
S1130A60000D0A48494420496E74657272757074A9
S1130A7020496E636F6D696E6720436F6E6E6563A8
S1130A8074696F6E2052657175657374000D0A4840
S1130A90494420436F6E74726F6C205375636365B1
S1130AA0737366756C6C7920436F6E6669677572D3
S1130AB06564000D0A48494420436F6E74726F6C7C
S1130AC020496E636F6D696E6720436F6E6E656358
S1130AD074696F6E2052657175657374000D0A4CEC
S1130AE03243415020496E74657272757074000D02
S1130AF00A4C3243415020556E6B6E6F776E205313
S1130B0069676E616C696E6720436F6D6D616E64B9
S1130B103A20000D0A446973636F6E6E6563742036
S1130B20526573706F6E73653A20496E74657272A4
S1130B30757074204368616E6E656C000D0A4469BB
S1130B4073636F6E6E65637420526573706F6E733A
S1130B50653A20436F6E74726F6C204368616E6EE9
S1130B60656C000D0A48494420496E7465727275BB
S1130B70707420436F6E66696775726174696F6E15
S1130B802052657175657374000D0A484944204309
S1130B906F6E74726F6C20436F6E666967757261F5
S1130BA074696F6E2052657175657374000D0A481F
S1130BB0494420496E7465727275707420436F6E77
S1130BC066696775726174696F6E20436F6D706CCE
S1130BD0657465000D0A48494420436F6E74726F52
S1130BE06C20436F6E66696775726174696F6E20FD
S1130BF0436F6D706C65746500204964656E74693B
S1130C00666965723A2000200020534349443A2023
S1130C100020000D0A4C3243415020436F6E6E6534
S1130C206374696F6E2052657175657374202D202D
S1130C3050534D3A200010000000200000004000F6
S1130C400000800000000100000008000000020015
S1130C500000040000000001000000020000000485
S1130C600000000800000010000000200000004008
S1130C7000000080000000000100000008000000E7
S1130C8010000001020408090A0C0D0E0F000000F8
S1130C9000000000000000FF27100032FF271000B2
S1130CA032FF27100032FF2710003200000000003E
S1130CB000000000000000000000000000001124FB
S1130CC01FBECFEFD8E0DEBFCDBF12E0A0E0B1E0A1
S1130CD0EAEDFCE302C005900D92A034B107D9F708
S1130CE025E0A0E4B2E001C01D92AD3BB207E1F7FC
S1130CF00E9482150C946B1E0C9400001F920F929C
S1130D000FB60F9211248F9384B78E7F84BF8F9177
S1130D100F900FBE0F901F901895FC0185E091E095
S1130D20958384838AE091E09783868315AA17AA22
S1130D3012AE14AE15AEDF01DE961D921D921D9209
S1130D401C9213971A961C92119681E08C931A9612
S1130D501D921C92EE5BFF4F118210820895CF9377
S1130D60DF93EC01FC01EE5BFF4F80819181DC019C
S1130D70ED91FC910480F581E02D09951DAA1EAA30
S1130D801AAE1BAEFE01E45BFF4F10821DAE3E9710
S1130D9010821182128213823A9683E08083319604
S1130DA081E08083C05BDF4F1882DF91CF9108958B
S1130DB0CF93DF93EC01CE5BDF4F88819981DC0117
S1130DC0ED91FC910190F081E02D68E572E00995C8
S1130DD088819981DC01ED91FC910280F381E02D01
S1130DE00995DF91CF910895EF92FF920F931F938E
S1130DF0CF937B018A01FC01EB5AFF4F20813181A3
S1130E002E7F3183208381E00E94BD1201151105DC
S1130E1079F080E090E0C0E0F701E80FF91F8081ED
S1130E200E94BD12CF5F8C2F90E080179107A0F332
S1130E30CF911F910F91FF90EF900895FC01EB5A11
S1130E40FF4F11821082E3E8F4E023E020832CE0DA
S1130E502183128243E050E0BF010E94F40608950A
S1130E60FC01EB5AFF4F208131812F7E3183208397
S1130E70E3E8F4E02AE120832CE0218321E02283CB
S1130E80FC0124813581232B21F023E02093860467
S1130E9003C022E02093860444E050E063E874E059
S1130EA00E94F4060895FC01EB5AFF4F2081318122
S1130EB02F7D31832083E3E8F4E029E0208320E1DF
S1130EC02183128243E050E0BF010E94F40608959A
S1130ED0FC01EB5AFF4F208131812F7B318320832A
S1130EE0E3E8F4E021E0208320E12183128243E05F
S1130EF050E0BF010E94F4060895DC01FC01EB5AA6
S1130F00FF4F808191818D7F91838083E3E8F4E0BA
S1130F1089E0808384E0818387E0828350968C918A
S1130F205097838351968C915197848352968C91D8
S1130F305297858353968C915397868354968C91BC
S1130F405497878355968C915597808711864AE0EC
S1130F5050E0BF01CD010E94F4060895DC01FC01BC
S1130F60EB5AFF4F80819181877F91838083E3E8EF
S1130F70F4E089E1808384E081838AE0828350966F
S1130F808C915097838351968C9151978483529678
S1130F908C915297858353968C915397868354965C
S1130FA08C915497878355968C915597808781E0CF
S1130FB081871286138614864DE050E0BF01CD016F
S1130FC00E94F40608950F931F93CF93DF938C012F
S1130FD0EB01E3E8F4E083E180838CE08183DB01CF
S1130FE00D900020E9F7CD01861B828390E00AC0B2
S1130FF0FE01E20FF31F8081E92FF0E0ED57FB4F74
S113100083839F5F292F30E0FE0101900020E9F7E0
S11310103197EC1BFD0B2E173F0750F3F901ED57E9
S1131020FB4F1382FE0101900020E9F7AF014C1B36
S11310305D0B4D5F5F4F63E874E0C8010E94F406E6
S1131040DF91CF911F910F910895FC01EB5AFF4F4F
S1131050208131812F7731832083E3E8F4E021E09C
S1131060208324E0218325E0228323E323832BE8C8
S113107024832EE9258320E326832AE0278348E07E
S113108050E0BF010E94F4060895E3E8F4E022E092
S1131090208324E02183128243E050E0BF010E94B8
S11310A0F4060895DB01FC01EB5AFF4F20813181E6
S11310B02D7F3E7F31832083E3E8F4E025E0208325
S11310C024E021832DE022832C91238311962C91FB
S11310D01197248312962C911297258313962C91A1
S11310E01397268314962C911497278315962C9185
S11310F0208728E121872CEC228721E0238714868E
S113110015861686178640E150E0BF010E94F4065A
S11311100895BC01605F7F4F0E9452080895CF93E9
S1131120DF93EC01E3E8F4E08DE0808384E08183E5
S113113087E1828388898383898984838A898583F3
S11311408B8986838C8987838D8980878FA988235F
S113115041F186E080938C04FE01E65BFF4F8081C1
S1131160882369F0E254F109ADE8B4E09E01225FFE
S11311703F4F81918D93E217F307D9F749C0FE01E0
S11311807096ADE8B4E09E012A5E3F4F81918D9345
S1131190E217F307D9F73CC01192E817F907E1F712
S11311A02FC0AE81BF81FD0101900020E9F7319786
S11311B0EA1BFB0BE0938C0490E00AC0FD01E20FF4
S11311C0F31F8081E92FF0E0ED57FB4F82879F5F8B
S11311D0292F30E0AE81BF81FD0101900020E9F7A5
S11311E03197EA1BFB0B2E173F0740F3903140F475
S11311F0E92FF0E0ED57FB4F12869F5F9031C1F766
S11312004AE150E063E874E0CE010E94F40605C0B0
S1131210E3E9F4E08DE994E0BFCFDF91CF91089545
S1131220DC01E3E8F4E08EE0808384E0818386E0FF
S1131230828350968C915097838351968C915197C9
S1131240848352968C915297858353968C915397AD
S1131250868354968C915497878355968C91559791
S1131260808749E050E0BF01CD010E94F406089553
S1131270DC01E3E8F4E08CE0808384E0818386E0B1
S1131280828350968C915097838351968C91519779
S1131290848352968C915297858353968C9153975D
S11312A0868354968C915497878355968C91559741
S11312B0808749E050E0BF01CD010E94F406089503
S11312C0E3E8F4E021E1208324E0218322E0228387
S11312D0DC011E963C911E971F962C9133832F7030
S11312E0248345E050E0BF010E94F4060895FC0108
S11312F0EB5AFF4F208131812B7F31832083E3E838
S1131300F4E026E0208324E0218323E02283638326
S11313107F70748323E1258346E050E0BF010E947F
S1131320F40608958F929F92AF92BF92CF92DF926C
S1131330EF92FF920F931F93CF93DF93EC01E09111
S113134083044E2F50E0FA013197E032F10508F0A2
S1131350DBC2E65AFF4F0C94301E80918804811141
S11313600BC3FE01EB5AFF4F20813181C90181601B
S11313709183808380918604813061F48091870415
S1131380803109F0F9C2809189048CAB21643183E6
S11313902083F2C2893009F0EFC280918704803142
S11313A009F0EAC2A9E8B4E0FE013896AE01425F52
S11313B05F4F8D918193E417F507D9F7CB5ADF4F2F
S11313C0216239832883D8C280918504882309F453
S11313D0D3C260E887E798E00E94271360E8809111
S11313E085040E943A13C8C2FC01E95AFF4F808168
S11313F0853080F08FA9811196C28CAD81119DC278
S113140009C01DAA1FAA1AAE1CAE8BE0FE01E05B48
S1131410FF4F8083C95ADF4F88818F5F8883ACC2B6
S113142080918504882309F4A7C260E88CE298E0DF
S11314300E94271303E814E060E8D80112968C9107
S11314400E943A13D8011296EC91EE2309F494C247
S1131450812C912C6E01BDE4CB0ED11C8E01025B5C
S11314601F4F7E01FFE4EF0EF11C0F2EF3E8AF2EA9
S1131470F4E0BF2EF02DEE0FEE0FEE0FE80DF0E0CE
S1131480ED57FB4F8481D6018C938581D8018C93D1
S11314908681F701808360E888E198E00E94271341
S11314A060E8D7018C910E943A1360E886E198E0E5
S11314B00E94271360E8F80180810E943A1360E8D3
S11314C084E198E00E94271360E8D6018C910E9481
S11314D03A138FA9882381F1F701808181112CC0EF
S11314E0D8018C91857009F45EC0F60180818C70FE
S11314F009F42DC281E0FE01E55BFF4F8083892D55
S113150090E09C01220F331F820F931F880F991FB5
S1131510FC01EA57FB4FDE01509684579B4F219103
S11315202D93E817F907D9F7CB5ADF4F88819981B2
S113153080689983888320C28CAD8823A1F1D80167
S11315408C91857081F1F6018081982F987C59F1F6
S113155088232CF460E886E098E00E942713FE01BB
S1131560E35BFF4F808186FF05C060E885EF97E06D
S11315700E942713FE01E35BFF4F808183FFEBC1D1
S113158060E885EE97E00E942713E5C121912D9331
S1131590E817F907D9F7CB5ADF4F8881998180681A
S11315A099838883E9C19394D5011296EC91B3E0B1
S11315B08B0E9E1608F45FCFDFC1FC01EB5AFF4F80
S11315C080819181916091838083809185048111D0
S11315D018C060E88CEC97E00E942713E3E8F4E07D
S11315E084818F7090E0982F88272381822B9F8796
S11315F08E87CB5ADF4F8881998182609983888353
S1131600BBC1C05BDF4F87E0888360E886EB97E06F
S11316100E94271360E8809185040E943A13ACC1AC
S1131620809185048111A8C1CB5ADF4F88819981AB
S11316308D7F8460998388839FC180918504811103
S11316409BC180918C048E8B882371F0ADE8B4E04B
S1131650FE0177969E012C5C3F4F8D9181938823E8
S113166019F0E217F307C9F7CB5ADF4F8881998144
S113167088609983888380C1A5E8B4E0FC017096F2
S11316809C012A5E3F4F8D918193E217F307D9F7AE
S1131690A3E8B4E018968C911897FE01E35BFF4F22
S11316A0808319968C911997319680831A968C9120
S11316B0DE01A15BBF4F8C938081857021F131974E
S11316C08081982F987CF9F088232CF460E880EAD4
S11316D097E00E942713FE01E35BFF4F808186FFA2
S11316E005C060E887E897E00E942713FE01E35BEA
S11316F0FF4F808183FF05C060E88FE697E00E947A
S1131700271381E08BAF60E88BE597E00E942713F5
S1131710FE01E15BFF4F60E880810E943A1360E8BC
S113172089E597E00E942713FE01E25BFF4F60E822
S113173080810E943A1360E887E597E00E942713AE
S1131740FE01E35BFF4F60E880810E943A13FE01D3
S1131750EB5AFF4F80819181806191838083C05BCC
S1131760DF4F8CE0888308C18FA9882349F060E8A3
S113177080E497E00E942713CE010E948F08FCC0EA
S11317808E819F81892B71F060E883E297E00E944B
S1131790271360E88E819F810E942713CE010E9447
S11317A08F08EAC060E882E197E00E942713CE0127
S11317B00E941009E1C060E88BEF96E00E942713B5
S11317C0CE010E943809D8C08091850481111DC0C2
S11317D08FA9882359F08DA9811108C060E889ED8B
S11317E096E00E94271381E08DABC6C08CAD8823A0
S11317F009F4C2C08AAD8111BFC060E884EB96E0F1
S11318000E94271381E08AAFB7C060E881EA96E0BE
S11318100E94271360E8809185040E943A136E8524
S11318207F85CE010E947709C05BDF4F81E1888309
S1131830A3C060E88BE896E00E9427139DC060E88F
S11318408CE796E00E94271397C0CB5ADF4F88811C
S113185099819860998388838FC060E889E696E0CF
S11318600E94271389C060E88CE496E00E94271345
S113187083C060E88DE296E00E9427137DC060E893
S113188083E196E00E94271377C060E888EF95E033
S11318900E94271371C060E88AED95E00E94271327
S11318A06BC060E880EC95E00E94271365C08091CE
S11318B0850481110DC060E881EA95E00E94271338
S11318C0CB5ADF4F8881998194609983888354C06F
S11318D060E884E895E00E9427134EC08091850457
S11318E081110DC0CB5ADF4F888199819260998311
S11318F0888360E884E695E00E94271305C060E8C9
S113190088E495E00E942713809183048823A1F141
S113191060E880E395E00E94271360E880918304E7
S11319200E943A1329C0FE01E95AFF4F108260E871
S11319308FE598E00E94271364CDFE01E95AFF4F1A
S1131940108260E884E498E00E9427135ACD8CAD9D
S11319508111F9CD28CE892D90E09C01220F331FEF
S1131960820F931F880F991FFC01EA57FB4FDE017A
S1131970509684579B4F0ACEDF91CF911F910F91C0
S1131980FF90EF90DF90CF90BF90AF909F908F909B
S11319900895E3E8F4E024E220832CE0218323E0AB
S11319A02283138221E02483158246E050E0BF01A4
S11319B00E94F4060895E3E8F4E02FE0208324E095
S11319C0218322832CE02383148228E125832CECB9
S11319D0268347E050E0BF010E94F4060895E3E83F
S11319E0F4E020E220832CE0218321E0228313828F
S11319F044E050E0BF010E94F4060895DF92EF92A4
S1131A00FF920F931F93CF93DF93FC01E05BFF4F93
S1131A10E0814E2F50E04831510508F079C3EC01C4
S1131A20FA01E658FF4F0C94301EFC01EF5AFF4FA9
S1131A3080819181019691838083329620813181C6
S1131A402817390708F064C3CE010E941E07FE015F
S1131A50E05BFF4F81E08083CF5ADF4F1982188209
S1131A6057C3FC01EF5AFF4F808191810196918306
S1131A7080833496208120FF11C034971182108214
S1131A8060E88BE195E00E942713FE01E05BFF4FC5
S1131A9082E08083CE010E94C90C3AC3FE01ED5A54
S1131AA0FF4F208131812817390708F031C3C9015C
S1131AB0880F991F220F331F220F331F220F331F4A
S1131AC0280F391F213D87E0380718F4318320831C
S1131AD007C080ED97E0FE01ED5AFF4F91838083AC
S1131AE060E880E095E00E942713FE01E05BFF4F71
S1131AF01082CF5ADF4F198218820AC3FC01EB5AB5
S1131B00FF4F808180FF0DC060E889EE94E00E9461
S1131B102713CE010E94C90CC05BDF4F82E088838B
S1131B20F7C2CE010E94C90CC05BDF4F82E08883FC
S1131B30EFC2FC01EB5AFF4F808180FFE9C260E8ED
S1131B4081ED94E00E942713FE01E05BFF4F83E0E8
S1131B508083CE010E945307DBC2FC01EB5AFF4F86
S1131B60808185FFD5C260E885EB94E00E9427134D
S1131B708E01025F1F4F7E0199E0E90EF11C60E8BF
S1131B80D8018E918D010E943A1360E883EB94E0B2
S1131B900E9427130E151F0591F760E888850E949F
S1131BA03A13CE010E946807C05BDF4F84E088834C
S1131BB0AFC2FC01EB5AFF4F808186FFA9C26C8142
S1131BC07D816115710541F0CE010E94E307C05B80
S1131BD0DF4F85E088839CC2C05BDF4F87E088834A
S1131BE097C2FC01EB5AFF4F808180FF91C260E8ED
S1131BF08CE994E00E9427138C819D810E94031339
S1131C00CE010E943007C05BDF4F87E0888380C22B
S1131C108CAD811104C08FA9811104C016C08FA995
S1131C20882331F060E884E194E00E94271305C022
S1131C3060E88BEE93E00E942713CE010E942508F2
S1131C40C05BDF4F88E0888363C2C05BDF4F8BE0FB
S1131C5088835EC2FC01EB5AFF4F808187FF58C224
S1131C60CE010E9445088FA9882331F060E88BEDEE
S1131C7093E00E94271305C060E888EC93E00E947B
S1131C80271360E880EA93E00E9427138FA9882332
S1131C9031F060E88FE893E00E94271305C060E804
S1131CA08AE793E00E94271360E886E593E00E94A8
S1131CB027138FA9882331F060E88EE493E00E9413
S1131CC0271305C060E887E493E00E942713FE0110
S1131CD0E55BFF4F8081882341F0CE010E94AE076F
S1131CE0C05BDF4F8DE0888313C2C05BDF4F89E0A8
S1131CF088830EC2FC01EB5AFF4F808180FF08C22B
S1131D008FA9882331F060E88FE293E00E942713C3
S1131D1005C060E884E193E00E942713FE01E55BBF
S1131D20FF4F1082CE010E948908C05BDF4F8AE01A
S1131D308883EEC1FC01EB5AFF4F8081918190FFB3
S1131D40E7C181FF16C08FA9882331F060E88DEFC9
S1131D5092E00E94271305C060E883EE92E00E949F
S1131D602713CE010E946009C05BDF4F8BE088839C
S1131D70CFC160E88EEB92E00E942713CE010E944F
S1131D808908C6C18DA98111C3C18FA98111C0C1A0
S1131D908AAD8111BDC18CAD8111BAC160E887E9FA
S1131DA092E00E942713CE010E94300781E08883CD
S1131DB0C05BDF4F8CE08883ABC1FC01EB5AFF4F63
S1131DC0808184FF0EC0188260E889E792E00E9457
S1131DD02713CE010E94AE07C05BDF4F8DE08883DE
S1131DE097C182FF95C1C05BDF4F81E1888390C1B9
S1131DF0FC01EB5AFF4F808183FF8AC160E889E6CA
S1131E0092E00E942713F12C8E010A5E1F4F08C036
S1131E10FE01EF0DF11D60E886890E943F13F394E3
S1131E20D02EE12EF80101900020E9F73197E01B54
S1131E30F10B2F2D30E02E173F0750F348E050E010
S1131E406FE071E0802F912F0E945D1E892B09F0B5
S1131E504AC081E08EAB18AE19AEFE01E65BFF4FBF
S1131E60108260E881E592E00E94271346E150E089
S1131E7068E171E0802F912F0E945D1E892B41F44F
S1131E8060E888E392E00E94271381E088AF2BC0CA
S1131E9046E150E06FE271E0802F912F0E945D1EB9
S1131EA0892B69F460E880E292E00E94271381E0C4
S1131EB0FE01E65BFF4F808388AF89AF14C043E126
S1131EC050E066E471E0802F912F0E945D1E892B03
S1131ED051F460E88BE092E00E94271381E0FE0158
S1131EE0E65BFF4F8083FE01E15BFF4F8081811140
S1131EF01CC0319780818532C1F43197808188304C
S1131F00A1F443E150E06AE571E08D2D9E2D0E941D
S1131F105D1E892B51F460E88CEE91E00E9427133A
S1131F2081E0FE01E45BFF4F80838FA9882359F091
S1131F30FE01E55BFF4F8081882329F0C05BDF4F02
S1131F4089E08883E5C0CE010E94EF0CC05BDF4FBF
S1131F5086E18883DDC0FC01EB5AFF4F808180FF5E
S1131F60D7C060E88DEC91E00E942713CE010E9457
S1131F707D07C05BDF4F8EE08883CAC0FC01EB5A4B
S1131F80FF4F808181FFC4C060E885EB91E00E942F
S1131F9027138E010A5E1F4F7E01B1E1EB0EF11C87
S1131FA060E8F80182918F010E943A1360E883EBA4
S1131FB091E00E9427130E151F0591F760E88889A8
S1131FC00E943A13FE01E45BFF4F8081882311F0E5
S1131FD081E08AAF19821A821B82FE01EB5AFF4FFD
S1131FE011821082C05BDF4F87E1888391C0FC01BE
S1131FF0EB5AFF4F8081918193FF05C060E88AE826
S113200091E00E942713C05BDF4F80E1888380C08A
S1132010FC01EB5AFF4F8081918192FF79C060E807
S113202080E791E00E942713FE01E05BFF4F84E10B
S11320308083CE010E94AE076BC0FC01EB5AFF4FB8
S1132040808183FF65C060E889E591E00E942713E1
S1132050CE010E94DB0CC05BDF4F82E1888358C055
S1132060FC01EB5AFF4F8081918191FF05C060E82C
S113207083E491E00E942713C05BDF4F80E18883F3
S113208047C0FC01EF5AFF4F208131812F5F3F4F42
S1132090293EF3E03F0728F4CF5ADF4F39832883E2
S11320A037C0FC01EF5AFF4F11821082C05BDF4F33
S11320B08BE088832DC0FC01EB5AFF4F808182FFA7
S11320C027C060E884E291E00E942713FE01EB5AE6
S11320D0FF4F1182108280E4E3E8F4E0DF01982FDF
S11320E01D929A95E9F7FE01E85AFF4FDF011D9210
S11320F08A95E9F71FAA1EAA1DAA3D9710821CAE55
S11321001BAE1AAE31961082C05BDF4F8BE0888322
S1132110DF91CF911F910F91FF90EF90DF90089581
S11321208F929F92AF92BF92CF92DF92EF92FF92E3
S1132130CF93DF93EC010E945713822E932EA42E8B
S1132140B52EFE01FE9680819181A281B381881A09
S1132150990AAA0ABB0A42F480915502811104C06B
S1132160809154028823A1F080915502882341F084
S113217010925502CE010E949209CE010E94FE0CDB
S113218080915402811110925402CE010E94D8060B
S11321900E945713822E932EA42EB52EFE01FE9676
S11321A0C85BDF4F888190E0A0E0B0E0880E991E04
S11321B0AA1EBB1E80829182A282B38280E0DF913C
S11321C0CF91FF90EF90DF90CF90BF90AF909F9012
S11321D08F9008958F929F92AF92BF92CF92DF9289
S11321E0EF920F931F93CF93DF93CDB7DEB78DB6E6
S11321F09EB6C22ED12CC6010896EDB7FEB7E81BD9
S1132200F90B0FB6F894FEBF0FBEEDBF8DB79EB7A6
S113221001965C0161837F707062FC01718384E0CC
S1132220820F8283C60104969383248315820683D6
S1132230E782C114D10469F0A42FB52F3896960112
S1132240285F3F4F2A0D3B1D8D918193E217F307C1
S1132250D9F782E00E94BD128501F8E0CF0ED11CAF
S1132260AC0CBD1CF80181918F010E94BD120A15AE
S11322701B05C1F70FB6F8949EBE0FBE8DBEDF914D
S1132280CF911F910F91EF90DF90CF90BF90AF90BF
S11322909F908F900895EF920F931F93CF93DF93A6
S11322A0D801FC01E856FF4F53E05083EC01C756B8
S11322B0DF4F4883219648E0488321961882E9013C
S11322C04881EC01C456DF4F4883E9012981EC01C0
S11322D0C356DF4F28832C912196288311962C9185
S11322E0DC01A156BF4F2C931196EC9211961C92CF
S11322F011961C9211961C92E12C01E02CE0AF0186
S11323000E94EA10DF91CF911F910F91EF900895F1
S1132310EF920F93FC01E856FF4F54E05083DC0129
S1132320A756BF4F4C93119648E04C9311961C92BC
S1132330D9014C91DC01A456BF4F4C93D90111969D
S11323402C91DC01A356BF4F2C9311961C9211962D
S11323501C92119621E02C93119622E02C93119655
S11323602FEF2C9311962C93E12C01E02CE0AF017C
S11323700E94EA100F91EF900895EF920F93FC01E1
S1132380E856FF4F55E05083DC01A756BF4F4C93EE
S113239011964AE04C9311961C92D9014C91DC01A0
S11323A0A456BF4F4C93D90111962C91DC01A3562E
S11323B0BF4F2C9311961C9211961C9211961C924D
S11323C011961C92119621E02C93119622E02C93E5
S11323D0119630EA3C9311962C93E12C01E02EE007
S11323E0AF010E94EA100F91EF900895EF920F93BE
S11323F01F93CF93DF93D801FC01E856FF4F56E0BB
S11324005083EC01C756DF4F4883219644E048834C
S113241021961882E9014881EC01C456DF4F4883B4
S1132420E9012981EC01C356DF4F28832C912196C1
S1132430288311962C91DC01A156BF4F2C93E12CDB
S113244001E028E0AF010E94EA10DF91CF911F91D3
S11324500F91EF900895EF920F931F93CF93DF9313
S1132460D801FC01E856FF4F57E05083EC01C756F2
S1132470DF4F4883219644E0488321961882E9017E
S11324804881EC01C456DF4F4883E9012981EC01FE
S1132490C356DF4F28832C912196288311962C91C3
S11324A0DC01A156BF4F2C93E12C01E028E0AF01E1
S11324B00E94EA10DF91CF911F910F91EF90089540
S11324C0877080611092A0008093A10080ED97E056
S11324D09093A7008093A600789480E28093720082
S11324E0089591EA94BD95B58770982B95BD8AB1EE
S11324F0806E8AB9209A089591EA9093800087703B
S11325008093810084B18E6184B9089591EA909397
S11325109000E1E9F0E090818770982B9083529AC3
S11325205A9A08958A3010F0895C0895805D089560
S11325301F93CF93DF93182F82958F700E9492126E
S1132540C0E5D2E08883812F8F70809353020E946C
S1132550921289831A82CE01DF91CF911F9108953F
S11325609093C5008093C40088E98093C1008EE0F5
S11325708093C200269A27980895E0ECF0E09081B9
S113258095FFFDCF8093C60008959093CD0080936E
S1132590CC0088E38093C9008EE08093CA0008953C
S11325A01092C90008959091C80095FF24C090919D
S11325B05702992329F11FC0E9ECF0E09081906261
S11325C090832091560290915702291304C01092CF
S11325D0570210925602909157029F3F99F0E09152
S11325E05702F0E0EC57FC4F8083809157028F5FD5
S11325F08093570208959091C90095FFDDCFE1CFF4
S11326008093CE000895CF93DF93EC018DE00E9478
S1132610D3128AE00E94D3128881882331F0219654
S11326200E94D31289918111FBCFDF91CF9108953C
S1132630CF93DF93EC018881882331F021960E94A7
S1132640D31289918111FBCFDF91CF910895CF935C
S1132650DF93EC01FC018491882349F0FE0184910D
S11326600E94D3122196FE0184918111F7CFDF914C
S1132670CF9108950E9498120E94181308950E9401
S1132680D312089589E184B980E88AB915B81BB8D2
S113269081E00E94861281E00E9460128CE090E04A
S11326A00E94C51281E090E00E94B012089520912A
S11326B0B1053091B2054091B3055091B4056091D4
S11326C0B5057091B6058091B7059091B805089548
S11326D08F929F92AF92BF92CF92DF92EF92FF922E
S11326E00F931F93CF93DF93A090B105B090B205E1
S11326F0C090B305D090B405E090B505F090B60550
S11327000091B7051091B805282F392F40E050E00B
S113271060E070E080E090E00E94361E822E932EEE
S1132720D42FC52FB62FA72FF82FE92F20934802B7
S11327303093490240934A0250934B0260934C02F7
S113274070934D0280934E0290934F02A090B10576
S1132750B090B205C090B305D090B405E090B50533
S1132760F090B6050091B7051091B805282D392DC4
S11327704D2F5C2F6B2F7A2F8F2F9E2F0E94541E6C
S113278028F7DF91CF911F910F91FF90EF90DF9089
S1132790CF90BF90AF909F908F9008959093B00585
S11327A08093AF0508951F920F920FB60F921124D4
S11327B02F933F934F935F936F937F938F939F9345
S11327C0AF93BF93EF93FF938091C600809347022A
S11327D090914602911115C09EEF980F933008F026
S11327E09CC08093450291E090934602823031F080
S11327F0843009F09DC0109255029AC01092540280
S113280097C020914302309144022C3261E0360794
S113281008F08AC090914502923021F0943009F476
S11328204AC07BC0F901E85AFD4F8083A901425098
S1132830510942305105B8F42230310539F490E0A1
S1132840049690930201809301010DC02330310559
S113285051F44091010150910201BA01782B709317
S11328600201609301012F5F3F4F30934402209394
S1132870430280910101909102012817390709F060
S11328804CC08091010190910201909304018093C6
S113289003018BE291E0909302018093010181E0B6
S11328A08093540210924402109243028093540283
S11328B0109246023DC0F901ED57FB4F8083213051
S11328C0310531F490E00296909302018093010166
S11328D02F5F3F4F309344022093430280910101C4
S11328E09091020128173907C1F480910101909158
S11328F0020190930401809303018BE291E0909391
S113290002018093010181E08093550210924402F8
S113291010924302109246020BC0809143029091A0
S113292044028C32914020F08AEB91E00E94031320
S1132930FF91EF91BF91AF919F918F917F916F9193
S11329405F914F913F912F910F900FBE0F901F9069
S113295018951F920F920FB60F9211248F939F9385
S1132960EF93FF9380915702811109C08091C900B0
S113297085FF05C0E9ECF0E080818F7D8083809144
S113298057028823B9F0E0915602F0E0EC57FC4F6F
S113299080818093CE00809156028F5F809356028F
S11329A09091560280915702981304C010925702D6
S11329B010925602FF91EF919F918F910F900FBE4D
S11329C00F901F9018951F920F920FB60F9211241B
S11329D02F933F934F935F936F937F938F939F9323
S11329E0AF93EF93FF932091B1053091B2054091DD
S11329F0B3055091B4056091B5057091B605809109
S1132A00B7059091B805A1E00E943F1E2093B1053F
S1132A103093B2054093B3055093B4056093B50564
S1132A207093B6058093B7059093B8058091AF0570
S1132A309091B00520914102309142022817390744
S1132A4008F441C01092420210924102E091400207
S1132A50E63988F480910001882309F43EC0EF5FD1
S1132A60E0934002F0E0E257F74FE491F0E0F09396
S1132A709B00E0939A00E0914002E63939F480919A
S1132A800001882329F01092000102C0EE23A1F076
S1132A9080910001811117C0E150E0934002F0E001
S1132AA0E257F74FE491F0E0F0939B00E0939A0033
S1132AB080914002811107C080910001811103C0FF
S1132AC081E080930001809141029091420201963D
S1132AD0909342028093410205C0E0914002E6399E
S1132AE0A9F6D6CFFF91EF91AF919F918F917F91EE
S1132AF06F915F914F913F912F910F900FBE0F9067
S1132B001F901895CF93DF93CDB7DEB7CD57D14043
S1132B100FB6F894DEBF0FBECDBF8FEF8AB984B96C
S1132B208DB987B918B81EB81BB815B880E090E005
S1132B300E94CE130E94421389EC91E00E94031379
S1132B4082EF91E00E9403130E945713722E832E8A
S1132B500F2EF3E09F2EF02D80915502811116C0A7
S1132B600E945713A72CB82CC12CD12CE12CF12C8A
S1132B7000E010E00E944B1E273833414105510507
S1132B80610571058105910539F330F31092550201
S1132B909A949110E1CF89E092E00E94031381E2BC
S1132BA092E00E94031382E090E00E94CE13CE01D3
S1132BB088529F4F0E948D06A12CC12CE12C00E06D
S1132BC020E040E0BE0168527F4FCE0101960E9492
S1132BD0F417CE0188529F4F0E94AF06C85DDE4FA6
S1132BE01882C852D140CE0188529F4F0E94FE0CD9
S1132BF08E85811104C082E090E00E94CE13CE0144
S1132C0088529F4F0E9490108E85882389F388E014
S1132C1090E00E94CE1360E1CE0101960E943C1820
S1132C20882341F08CE899E00E940313CE010196B9
S1132C300E94D21760E0CE0101960E947218182FEC
S1132C4063E0CE0101960E947218612F0E94DE1685
S1132C50CFCF84B1896184B9579A89E085B981E07D
S1132C600E94711281E00E947C12089585B1867ED3
S1132C7085B95F9817BC18BC10928900109288001F
S1132C8010928B0010928A0008958038910530F0DC
S1132C909C012058310980E091E007C09C01205834
S1132CA031092095309580E090E0220F331F216098
S1132CB02B3F310530F42530310528F420E030E095
S1132CC002C02FEF30E0822B08950F931F93CF9310
S1132CD0DF938B010E944516EC01C8010E94451642
S1132CE09C01AE01552741155105C9F0CE01882735
S1132CF09170D0FF0AC030FD1AC03327241735075E
S1132D00C0F4CE01821B930B18C030FF15C03327CB
S1132D102417350790F4CE01821B930B0EC099271C
S1132D20009759F030FF09C0C901916006C0CE0177
S1132D3004C080E091E001C0CE01DF91CF911F91EA
S1132D400F9108950F931F93CF93DF938B010E94EC
S1132D504516EC01C8010E9445169C01AE01552799
S1132D6041155105C1F0D0FF0AC090FF1CC03327A4
S1132D7024173507D0F4CE01821B930B1AC0882781
S1132D80917030FD15C033272417350790F4CE0118
S1132D90821B930B0EC09927009759F030FD09C090
S1132DA0C901916006C0CE0104C080E091E001C079
S1132DB0CE01DF91CF911F910F910895EF92FF9271
S1132DC00F931F93CF93DF93062F10E0C82FD0E00B
S1132DD0B801CE010E9465167C019093BC058093D6
S1132DE0BB05B801CE010E94A2169093BA05809348
S1132DF0B905F0FE02C0289B32C08091BB059091BA
S1132E00BC0590FF03C0289936C003C05F9B3BC03C
S1132E1086C08091BB059091BC0590FD02C05F996E
S1132E203EC08091B9059091BA0590FF06C02B9BD6
S1132E3038C07AC02B9951C009C08091B9059091CE
S1132E40BA0590FD7BC02C9B4EC073C08091B90520
S1132E509091BA0590FD72C02C995BC06FC017BCED
S1132E6018BC289A5F9885E090E00E9468138091CE
S1132E70BB0588BDC2CF88BD8091BB059091BC05C0
S1132E8090FDCFCFC3CF17BC18BC5F9A289885E0BC
S1132E9090E00E9468138091BB0587BDBACF87BDBF
S1132EA0C0CF1092890010928800CAE8D0E019823D
S1132EB018822B9A2C9885E090E00E9468138091E8
S1132EC0B9059091BA059927998388838091B905AA
S1132ED09091BA0590FDAECFB6CF992790938B0011
S1132EE080938A00AACFC8E8D0E019821882109291
S1132EF08B0010928A002C9A2B9885E090E00E9417
S1132F0068138091B9059091BA05992799838883AC
S1132F109DCF992790938900809388000FC080915A
S1132F20BB059091BC057BCF8091B9059091BA0502
S1132F3081CF8091B9059091BA058ECFDF91CF9161
S1132F401F910F91FF90EF900895CF93DF93EC01C1
S1132F501D861E861F86198A188619861A861B8660
S1132F601A8AEC81FD81E85BFF4F8AE0808382E06E
S1132F7090E00E94CE138CE090E00E94C5120E9463
S1132F803616EDE8FCE0DE01A359BF4F9E0123563F
S1132F903F4F84918D933196A217B307D1F7DF91F8
S1132FA0CF9108950F931F93CF93DF93EC014C853A
S1132FB04F5F4C878C010B521F4F9C012D523F4F8A
S1132FC06E817F818C819D810E94F611E881F98157
S1132FD00480F581E02DCE01099589E08A8BDF918B
S1132FE0CF911F910F910895AF92CF92EF920F93CB
S1132FF0FC0175836483DB01AE5BBF4F8D939C93AF
S113300086E392E091838083A481B5811D964C93DD
S1133010A481B5811C962C93A481B5811B960C9335
S1133020A481B5811A96EC92A481B5811996CC92AB
S1133030A481B5811896AC92DF01A559BF4F82E5F2
S11330408C93119681E08C93D19682EA8C9311969D
S113305082E08C93D39680E48C9311961C92139601
S113306081E48C9311961C92CF010E94A5170F91B5
S1133070EF90CF90AF900895CF92DF92EF92FF92AE
S11330800F931F93E62FF0E0EE0FFF1FEE0FFF1FCD
S1133090EA5CF34FC590D590E590F490FC01478D20
S11330A050A161A172A19701860100951095209508
S11330B030950423152326233723078F10A321A338
S11330C032A34C215D216E217F2181E0452B462BCB
S11330D0472B09F480E01F910F91FF90EF90DF9050
S11330E0CF900895860F911DFC0182AD0895AF9293
S11330F0BF92CF92DF92EF920F931F93CF93DF9300
S1133100EC018A89853009F4C8C030F4882371F051
S1133110843009F445C0D8C0883009F486C08930A9
S113312009F4A1C0863009F0CFC045C0888580FF6E
S1133130CBC060E883EB9AE00E9427136E018FEC0A
S1133140C80ED11C5E01A1EDAA0EB11C6E817F8157
S1133150EE24E394860195014C858C819D810E9427
S11331604B1185E090E00E9468136E817F81E12C11
S113317095014C858C819D810E944B118C858F5FBC
S11331808C8785E090E00E9468136E817F819601B0
S11331904C858C819D810E94881184E08A8B94C027
S11331A0888581FF91C060E88DE89AE00E9427132A
S11331B086E08A8B89C0888584FF86C060E881E6C2
S11331C09AE00E9427136E01B3EDCB0ED11C5E0171
S11331D085EDA80EB11C6E817F81EE24E3948601F7
S11331E095014C858C819D810E944B1185E090E076
S11331F00E9468136E817F81E12C95014C858C813E
S11332009D810E944B118C858F5F8C8785E090E0B7
S11332100E9468136E817F8196014C858C819D810B
S11332200E94881188E08A8B4FC0888585FF4CC036
S113323060E889E39AE00E94271388898D3451F469
S113324080E4FE01BB96DF011D928A95E9F781E1D6
S11332508A8B02C082E18A8B0E9457132BA33CA362
S11332604DA35EA331C0888587FF2EC060E888E146
S11332709AE00E9427134C854F5F4C878E010F52B2
S11332801F4F9E0121533F4F6E817F818C819D8111
S11332900E94F61185E08A8B17C0888583FF14C0CD
S11332A060E889EF99E00E9427136E817F818C8109
S11332B09D810E9477098FEF9FEF9F838E831886ED
S11332C019861A861B861A8ADF91CF911F910F9156
S11332D0EF90DF90CF90BF90AF900895EF92FF9260
S11332E00F931F93CF93DF93DC011496ED91FC9120
S11332F01597818181113FC01D968C911D97811175
S11333003AC01E968C911E97811135C01F968C91E0
S11333101F97811130C051968C91519781112BC008
S113332085A9811128C086A9811125C087A9811189
S113333022C0EB0188858230F1F48D8590E0982FCE
S113334088272C85822B4197B1F481E081835196A3
S11333508C9351971496ED91FC91159786859785DA
S113336017969C938E93169752961C925297868921
S113337050968C9350971696CD91DC911797FB013C
S1133380808190E09E0133278217930709F03BC2A6
S1133390218130E08D2F992780622817390709F0A1
S11333A032C21BC2D701D3968C91813009F411C269
S11333B0823009F065C060E883E19CE00E94271335
S11333C060E8E70188AD0E943A1360E881E19CE07F
S11333D00E94271360E88FA90E943A1360E889E0ED
S11333E09CE00E94271360E88AAD0E943A1360E8CB
S11333F087E09CE00E94271360E889AD0E943A139D
S113340060E889EF9BE00E94271360E88CA90E9482
S11334103A1388AD90E0982F88272FA9822B813109
S11334209105B1F48CA98C8789ADF701E153FF4F65
S11334308083F7018AADE053FF4F808388859985A7
S1133440AA85BB85816088879987AA87BB87C1C104
S1133450439709F0BEC18CA98C8789ADF701ED5261
S1133460FF4F8083E7018AAD3196808388859985F3
S1133470AA85BB85806188879987AA87BB87A9C1EC
S1133480853009F044C0F70184AD90E0982F882777
S113349023AD822B892B09F09CC187A9EF52FF4FE2
S11334A09081891317C0D701D8962C9131969081B9
S11334B0291310C060E884ED9BE00E942713E70104
S11334C088859985AA85BB85826088879987AA871C
S11334D0BB877FC1F701EB52FF4F9081891379C1FC
S11334E0D701D8969C9131968081981372C160E877
S11334F08DEA9BE00E942713E70188859985AA85B8
S1133500BB85806288879987AA87BB8762C184301C
S113351009F03DC0D701D7968C91F701EF52FF4FC8
S11335209081891316C0E70128AD31969081291343
S113353010C060E889E89BE00E9427136E817F81B8
S1133540970121533F4F4CA98C819D810E94BD114D
S113355040C1F701EB52FF4F908189133AC1D70163
S1133560D8969C9131968081981333C160E883E6A4
S11335709BE00E942713E7016E817F8197012D5202
S11335803F4F4CA98C819D810E94BD1122C1863080
S113359009F04FC0F70187A9EF52FF4F90818913BB
S11335A01EC0D701D8962C9131969081291317C04B
S11335B0F70144A94487870101531F4F97012F52F4
S11335C03F4FBE01848195810E942B12D701ED915A
S11335D0FC910480F581E02DC7010995FAC0F7013B
S11335E0EB52FF4F90818913F4C0F70190ADEA527A
S11335F0FF4F80819813EDC0D701D4964C91D49796
S11336001C964C931C9787010D521F4F97012B5208
S11336103F4FBE0114968D919C9115970E942B12D9
S1133620E701E881F9810480F581E02DC70109955E
S1133630D0C0873009F03FC0F70187A9E153FF4F9D
S11336409081891319C0D701D8962C913196908115
S1133650291312C060E88CE39BE00E942713E70162
S11336608CA98C8788859985AA85BB85886088877D
S11336709987AA87BB87ADC0F701ED52FF4F9081B0
S11336808913A7C0D701D8969C913196808198134D
S1133690A0C060E883E19BE00E942713E7018CA9A6
S11336A08C8788859985AA85BB8580688887998752
S11336B0AA87BB878EC060E88FEE9AE00E9427132A
S11336C060E8D701D3968C910E943A1382C0F70127
S11336D0EB52FF4F808198137CC031968081481350
S11336E078C060E88DED9AE00E942713E7018D858C
S11336F0811107C08E85811104C08F85882309F448
S113370068C0F70183A9813A09F063C00E94571386
S1133710D70153962C93539754963C9354975596AC
S11337204C93559756965C9356971D968C911D977E
S1133730811104C01F968C91882381F0E7018FA921
S113374090E0982F88272EA9822BA0E0B0E028AD26
S1133750A22B8F8B988FA98FBA8F18C0D7011E9672
S11337608C911E97882391F0D6968C91D69790E0F1
S1133770982F8827D5962C91822BA0E0B0E0E70102
S11337802FA9A22B8F8B988FA98FBA8FD701579609
S11337904D915D916D917C915A975B968D919D9120
S11337A00D90BC91A02D481759076A077B0789F033
S11337B080959095A095B09584239523A623B7234F
S11337C0E7018F8F98A3A9A3BAA34B8F5C8F6D8F4A
S11337D07E8FC7010E94771816C0FB017D019B965E
S11337E080E401900D928A95E1F7D701D1969C91DE
S11337F0D197D2964C91292F30E0342B21303105CA
S113380009F065CFCFCDDF91CF911F910F91FF903C
S1133810EF9008952F923F924F925F926F927F9212
S11338208F929F92AF92BF92CF92DF92EF92FF92CC
S11338300F931F93CF93DF93EC015B01142F0E942E
S11338405713222E332E442E552ECFA0D8A4E9A4EC
S1133850FAA4D201C1018C199D09AE09BF098739A7
S11338609105A105B1055CF40E945713222E332E55
S1133870C6018A569F4F821993090E946813DE017C
S1133880A053BF4FFE01E153FF4F6E817F81EC9047
S11338900081212FA5018C819D810E94EA100E9444
S11338A057132FA338A749A75AA7DF91CF911F9188
S11338B00F91FF90EF90DF90CF90BF90AF909F90CB
S11338C08F907F906F905F904F903F902F900895CE
S11338D0FC01EA58FF4F660F6083BC0165597F4FB6
S11338E042E30E940A1C0895611103C00E94681CEF
S11338F00895E62FF0E0EE57F34FE491DC01AA5867
S1133900BF4FEF70EE0F2C91E22BEC93BC01655985
S11339107F4F42E30E940A1C0895CF93DF9300D0A7
S113392000D000D0CDB7DEB723E5298324EF2A8366
S113393022E42B8323E02C831D821E8246E0BE01F9
S11339406F5F7F4F0E940A1C26960FB6F894DEBF65
S11339500FBECDBFDF91CF9108952F923F924F922A
S11339605F926F927F928F929F92AF92BF92CF920B
S1133970DF92EF92FF920F931F93CF93DF93EC01AB
S11339805B01142F0E945713222E332E442E552EE2
S1133990CFA0D8A4E9A4FAA4D201C1018C199D092D
S11339A0AE09BF0987399105A105B1055CF40E94F0
S11339B05713222E332EC6018A569F4F821993091C
S11339C00E946813DE01AC52BF4FFE01ED52FF4F5F
S11339D06E817F81EC900081212FA5018C819D81D6
S11339E00E94EA100E9457132FA338A749A75AA789
S11339F0DF91CF911F910F91FF90EF90DF90CF90C7
S1133A00BF90AF909F908F907F906F905F904F90FA
S1133A103F902F9008958F929F92AF92BF92CF9232
S1133A20DF92EF92FF92CF93DF93EC018A89813189
S1133A3009F43FC0823121F0813009F0BEC098C042
S1133A400E945713822E932EA42EB52E8BA19CA1D7
S1133A50ADA1BEA1881A990AAA0ABB0A85E68816EE
S1133A609104A104B1040CF4A8C08AE090E00E947F
S1133A7068138EE292E00E9403138AE090E00E94B1
S1133A806813FE01BB9680E4DF011D928A95E9F775
S1133A908FE78AAF8BAF8CAF8DAFCE010E948D1CA8
S1133AA081E18A8B0E9457132BA33CA34DA35EA3F1
S1133AB084C00E945713822E932EA42EB52E8BA160
S1133AC09CA1ADA1BEA1881A990AAA0ABB0AB9EEA3
S1133AD08B16B3E09B06A104B1040CF46EC0888974
S1133AE0803561F48AE090E00E94681360E886ED16
S1133AF099E00E94271381E08D8719C08E3441F428
S1133B0060E884EB99E00E94271381E08F870FC05F
S1133B108D3469F40E9457132BA33CA34DA35EA3D9
S1133B2060E886E999E00E94271381E08E871F8A66
S1133B30188E198E1A8E1B8E1C8E1D8E1E8E1F8E35
S1133B4018A219A21AA2EC81FD81E85BFF4F84EF51
S1133B5080830E94D0120E94291661E0CE010E9447
S1133B60741C81E08A8B88E090E00E94CE1325C00B
S1133B708E85882311F10E945713822E932EA42E32
S1133B80B52E8BA19CA1ADA1BEA1881A990AAA0A3F
S1133B90BB0A81EA88168FE09806A104B1046CF090
S1133BA0BE0163567F4F42E3CE010E94AD1C0E94CA
S1133BB057132BA33CA34DA35EA3DF91CF91FF909A
S1133BC0EF90DF90CF90BF90AF909F908F9008952B
S1133BD0FC01E056FF4F6083319640833196208389
S1133BE0BC0163567F4F42E30E94AD1C0895CF92FF
S1133BF0DF92EF92FF920F931F93E42F042F152F60
S1133C00262F372F772737FD7A95632F522F412F91
S1133C106901FF24D7FCF094EF2C2E2F6C2D0E9409
S1133C20E81D1F910F91FF90EF90DF90CF900895C2
S1133C30DC011296ED91FC911397309711F00995E0
S1133C400895FC012685222339F040E050E06FEF0F
S1133C5070E00E94F71D089561E00E94741C0895AD
S1133C60EE0FFF1F0590F491E02D09942A0D3B1DE2
S1133C704C1D5D1D6E1D7F1D801F911F0895002426
S1133C80A7FD00942A0F301D401D501D601D701D9E
S1133C90801D901D08952A193B094C095D096E0980
S1133CA07F09800B910B08952A153B054C055D0592
S1133CB06E057F05800791070895FB01DC014150E3
S1133CC0504030F08D910190801919F40020B9F71B
S10D3CD0881B990B0895F894FFCFA8
S1133CDA012B012B014F72656E0033313035004ED2
S1133CEA696E74656E646F004E696E74656E646F96
S1133CFA2052564C2D434E542D30312D5452004EE1
S1133D0A696E74656E646F2052564C2D434E542D61
S1133D1A30312D5543004E696E74656E646F2052BE
S1133D2A564C2D5742432D303100576972656C65E4
S1133D3A737320436F6E74726F6C6C6572004154B6
S1133D4A00204932432020436F6D6D756E696361AB
S1133D5A74696F6E204572726F7220003D0D0A00FD
S1133D6A3D002D0D0A002D001B0020416363656C84
S1133D7A65726F6D65746572203A20002047797206
S1133D8A6F73636F7065203A2000427566666572C8
S1133D9A204F76657272756E004D6F6E737472750C
S1133DAA636B547275636B204C6F67696320426F4F
S1133DBA617264204669726D776172652076312E6C
S1133DCA300057616974696E6720666F72205761A3
S1133DDA6B65204576656E74004843492057616BCC
S1133DEA65204576656E74205265636569766564F7
S1133DFA0048432D303520416C6976652100496EAF
S1133E0A3100000000006E190B1DA517D217181EE9
S9030000FC
