:100000000C945F060C947C060C947C060C947C0685
:100010000C947C060C947C060C947E060C947C0656
:100020000C947C060C947C060C947C060C947C0648
:100030000C947C060C947C060C947C060C947C0638
:100040000C947C060C947C060C94B2130C947C06E5
:100050000C947C060C947C060C947C060C947C0618
:100060000C947C060C947C060C947C060C947C0608
:100070000C947C060C9488140C947C060C947C06DE
:100080000C947C060C947C060C947C060C947C06E8
:100090000C947C060C947C060C947C060C947C06D8
:1000A0000C947C060C94C2140C947C060C947C0674
:1000B0000C947C06F2090E0ADB0A390B0E0BD80BE6
:1000C0001B0B450C2D0C780C780C4B0C390CAC0927
:1000D000E209780C780C130C0D0C780C780CA80B3A
:1000E000CF0B3F0C210C270C330C780C620C780CD6
:1000F000780C190C090D250D8D0DA10DCD0DE50DFB
:10010000720DFC0D1E0E6E0E8E0EB60ED10EEC0E86
:10011000B20F7C1035104F102410FC0F11107C1002
:100120009F0FEB0F0D0A48434920446973636F6EBC
:100130006E65637465642066726F6D2044657669D0
:100140006365000D0A5061636B6574207479706596
:10015000206368616E676564000D0A5265636569B6
:100160007665642052656D6F7465204E616D650023
:100170000D0A52656365697665642052656D6F741A
:10018000652056657273696F6E000D0A5061676570
:10019000205363616E2052657065746974696F6E77
:1001A000204D6F6465204368616E67652045766504
:1001B0006E74003A000D0A436F6E6E656374656479
:1001C00020746F204465766963653A20000D0A57F4
:1001D000726974652061757468656E7469636174B1
:1001E000696F6E20456E61626C6564000D0A505344
:1001F0003420636F6E74726F6C6C6572206973204B
:10020000636F6E6E656374696E6700202D20576999
:10021000692042616C616E636520426F61726400A7
:10022000202D2057696920552050726F20436F6E32
:1002300074726F6C6C6572002077697468204D6F02
:1002400074696F6E20506C757320496E73696465B4
:10025000000D0A5769696D6F746520697320636FBB
:100260006E6E656374696E67000D0A52656D6F741A
:1002700065204E616D653A20000D0A496E636F6D11
:10028000696E6720436F6E6E656374696F6E20528E
:10029000657175657374000D0A5761697420466F46
:1002A0007220496E636F6D696E6720436F6E6E6575
:1002B0006374696F6E2052657175657374000D0A01
:1002C000547279696E6720746F20636F6E6E656318
:1002D00074206F6E65206D6F72652074696D652E78
:1002E0002E2E000D0A436F6E6E6563746564207474
:1002F0006F2048494420646576696365000D0A43B0
:100300006F6E6E656374656420746F205769696DE4
:100310006F7465000D0A436F6E6E656374696E6776
:1003200020746F2048494420646576696365000D38
:100330000A436F6E6E656374696E6720746F205731
:1003400069696D6F746500646576696365005769F6
:10035000696D6F7465000D0A416E64207468656E86
:1003600020707265737320616E7920627574746F8A
:100370006E206F6E2074686520000D0A4254484953
:10038000442062746869642826427464293B000D25
:100390000A574949205769692826427464293B0055
:1003A0000D0A4E6F77206A757374206372656174ED
:1003B000652074686520696E7374616E6365206C76
:1003C000696B6520736F3A000D0A484944206465E3
:1003D0007669636520666F756E64000D0A576969FA
:1003E0006D6F746520666F756E64000D0A506C65E4
:1003F00061736520656E61626C6520646973636F0B
:1004000076657279206F6620796F757220646576E3
:10041000696365000D0A5374617274696E672069BF
:100420006E71756972790D0A50726573732031208F
:10043000262032206F6E20746865205769696D6FC1
:1004400074650D0A4F72207072657373207468654D
:100450002053594E4320627574746F6E2069662074
:10046000796F7520617265207573696E67206120F0
:1004700057696920552050726F20436F6E74726FF8
:100480006C6C6572206F722061205769692042612F
:100490006C616E636520426F617264000D0A54687E
:1004A00065206E616D652069732073657420746FBB
:1004B0003A20003A000D0A4C6F63616C20426C7563
:1004C00065746F6F746820416464726573733A2059
:1004D000000D0A577269746520636C617373206F35
:1004E0006620646576696365000D0A5772697465F4
:1004F0002061636365737320656E61626C6564007F
:100500000D0A4E6F20726573706F6E736520746F85
:1005100020484349205265736574000D0A484349D9
:1005200020526573657420636F6D706C657465002F
:100530000D0A556E6D616E61676564204843492000
:100540004576656E743A20000D0A4368616E6765F2
:10055000205061636B6574207479706520666169F1
:100560006C6564000D0A4368616E676520506163C5
:100570006B6574207479706520737563636573733C
:1005800066756C000D0A526561642072656D6F744A
:10059000652076657273696F6E206661696C65644B
:1005A000000D0A526561642072656D6F7465207676
:1005B000657273696F6E20636F6D706C6574650032
:1005C0000D0A456E6372797074696F6E20436861BD
:1005D0006E6765204576656E74000D0A4C696E6B1A
:1005E000206B6579206E6F74696669636174696FE9
:1005F0006E206576656E74000D0A514F5320536569
:1006000074757020436F6D706C65746520457665F8
:100610006E74000D0A4D617820736C6F74732063E3
:1006200068616E676564206576656E74000D0A43C7
:1006300068616E676520436F6E6E656374696F6E87
:10064000204C696E6B204576656E74000D0A44611E
:10065000746120427566666572204F766572666CBD
:100660006F77204576656E74000D0A4C6F6F70428F
:1006700061636B20436F6D6D616E64000D0A526F94
:100680006C65204368616E676564000D0A4E756D88
:1006900020436F6D706C657465205061636B657489
:1006A000000D0A50616972696E67204661696C6568
:1006B000643A20000D0A50616972696E6720737593
:1006C000636365737366756C207769746820484945
:1006D0004420646576696365000D0A50616972693A
:1006E0006E67207375636365737366756C207769D5
:1006F0007468205769696D6F7465000D0A526563EF
:100700006569766564204B657920526571756573FE
:1007100074000D0A4E6F2070696E2077617320732C
:100720006574000D0A426C7565746F6F7468207093
:10073000696E2069732073657420746F6F3A2000AE
:100740000D0A50616972696E672077697468205775
:1007500069696D6F746500200020000D0A436C61AB
:100760007373206F66206465766963653A20000DB7
:100770000A47616D6570616420697320636F6E6EF6
:10078000656374696E67000D0A4B6579626F61720B
:100790006420697320636F6E6E656374696E6700B1
:1007A0000D0A4D6F75736520697320636F6E6E65FA
:1007B0006374696E67000D0A436F6E6E65637469DA
:1007C0006F6E204661696C65643A20000D0A436FC4
:1007D0006E6E656374696F6E2065737461626C69B7
:1007E00073686564000D0A47616D65706164206619
:1007F0006F756E64000D0A4B6579626F61726420DB
:10080000666F756E64000D0A4D6F75736520666FB7
:10081000756E6400200020000D0A436C6173732024
:100820006F66206465766963653A20000D0A4E752F
:100830006D626572206F6620726573706F6E73658E
:10084000733A20000D0A436F756C646E277420663E
:10085000696E642048494420646576696365000DCB
:100860000A436F756C646E27742066696E64205746
:1008700069696D6F7465000D0A48434920436F6DC7
:100880006D616E64204661696C65643A2000000009
:10089000000000000000010101010101010101014E
:1008A000010101010102020202020202020203032B
:1008B00003030303040404040405050505060606F2
:1008C00007070708080809090A0A0B0B0C0C0D0D8D
:1008D0000E0F0F10111112131415161718191A1BD9
:1008E0001C1D1F202123242627292B2C2E30323497
:1008F00036383A3C3E404345474A4C4F515457598D
:100900005C5F6264676A6D707376797C7F828588CC
:100910008B8E9194979A9C9FA2A5A7AAADAFB2B4D3
:10092000B7B9BBBEC0C2C4C6C8CACCCED0D2D3D55C
:10093000D7D8DADBDDDEDFE1E2E3E4E5E6E7E8E9AC
:10094000EAEBECEDEDEEEFEFF0F1F1F2F2F3F3F4B0
:10095000F4F5F5F6F6F6F7F7F7F8F8F8F9F9F9F926
:10096000FAFAFAFAFAFBFBFBFBFBFBFCFCFCFCFCD7
:10097000FCFCFCFCFDFDFDFDFDFDFDFDFDFDFDFDAB
:10098000FDFDFDFEFEFEFEFEFEFEFFFF505320427B
:100990007574746F6E000D0A4D6F74696F6E20432D
:1009A0006F6E74726F6C6C657220456E61626C65FF
:1009B000640D0A000D0A4E617669676174696F6E95
:1009C00020436F6E74726F6C6C657220456E61624D
:1009D0006C65640D0A000D0A4475616C73686F6381
:1009E0006B203320436F6E74726F6C6C65722045A0
:1009F0006E61626C65640D0A000D0A446973636F71
:100A00006E6E656374656420436F6E74726F6C20E4
:100A10004368616E6E656C000D0A446973636F6EA6
:100A20006E656374656420496E7465727275707466
:100A3000204368616E6E656C000D0A484944204988
:100A40006E74657272757074205375636365737329
:100A500066756C6C7920436F6E6669677572656444
:100A6000000D0A48494420496E74657272757074AD
:100A700020496E636F6D696E6720436F6E6E6563AC
:100A800074696F6E2052657175657374000D0A4844
:100A9000494420436F6E74726F6C205375636365B5
:100AA000737366756C6C7920436F6E6669677572D7
:100AB0006564000D0A48494420436F6E74726F6C80
:100AC00020496E636F6D696E6720436F6E6E65635C
:100AD00074696F6E2052657175657374000D0A4CF0
:100AE0003243415020496E74657272757074000D06
:100AF0000A4C3243415020556E6B6E6F776E205317
:100B000069676E616C696E6720436F6D6D616E64BD
:100B10003A20000D0A446973636F6E6E656374203A
:100B2000526573706F6E73653A20496E74657272A8
:100B3000757074204368616E6E656C000D0A4469BF
:100B400073636F6E6E65637420526573706F6E733E
:100B5000653A20436F6E74726F6C204368616E6EED
:100B6000656C000D0A48494420496E7465727275BF
:100B7000707420436F6E66696775726174696F6E19
:100B80002052657175657374000D0A48494420430D
:100B90006F6E74726F6C20436F6E666967757261F9
:100BA00074696F6E2052657175657374000D0A4823
:100BB000494420496E7465727275707420436F6E7B
:100BC00066696775726174696F6E20436F6D706CD2
:100BD000657465000D0A48494420436F6E74726F56
:100BE0006C20436F6E66696775726174696F6E2001
:100BF000436F6D706C65746500204964656E74693F
:100C0000666965723A2000200020534349443A2027
:100C10000020000D0A4C3243415020436F6E6E6538
:100C20006374696F6E2052657175657374202D2031
:100C300050534D3A200010000000200000004000FA
:100C40000000800000000100000008000000020019
:100C50000000040000000001000000020000000489
:100C6000000000080000001000000020000000400C
:100C700000000080000000000100000008000000EB
:100C800010000001020408090A0C0D0E0F000000FC
:100C900000000000000000FF27100032FF271000B6
:100CA00032FF27100032FF27100032000000000042
:100CB00000000000000000000000000000001124FF
:100CC0001FBECFEFD8E0DEBFCDBF12E0A0E0B1E0A5
:100CD000E0E1FCE302C005900D92A034B107D9F722
:100CE00025E0A0E4B2E001C01D92A33BB207E1F70A
:100CF0000E945A150C94061E0C9400001F920F922D
:100D00000FB60F9211248F9384B78E7F84BF8F917B
:100D10000F900FBE0F901F901895FC0185E091E099
:100D2000958384838AE091E09783868315AA17AA26
:100D300012AE14AE15AEDF01DE961D921D921D920D
:100D40001C9213971A961C92119681E08C931A9616
:100D50001D921C92EE5BFF4F118210820895CF937B
:100D6000DF93EC01FC01EE5BFF4F80819181DC01A0
:100D7000ED91FC910480F581E02D09951DAA1EAA34
:100D80001AAE1BAEFE01E45BFF4F10821DAE3E9714
:100D900010821182128213823A9683E08083319608
:100DA00081E08083C05BDF4F1882DF91CF9108958F
:100DB000CF93DF93EC01CE5BDF4F88819981DC011B
:100DC000ED91FC910190F081E02D6EE472E00995C7
:100DD00088819981DC01ED91FC910280F381E02D05
:100DE0000995DF91CF910895EF92FF920F931F9392
:100DF000CF937B018A01FC01EB5AFF4F20813181A7
:100E00002E7F3183208381E00E94AC1201151105F1
:100E100079F080E090E0C0E0F701E80FF91F8081F1
:100E20000E94AC12CF5F8C2F90E080179107A0F347
:100E3000CF911F910F91FF90EF900895FC01EB5A15
:100E4000FF4F11821082E9E7F4E023E020832CE0D9
:100E50002183128243E050E0BF010E94F40608950E
:100E6000FC01EB5AFF4F208131812F7E318320839B
:100E7000E9E7F4E02AE120832CE0218321E02283CA
:100E8000FC0124813581232B21F023E020937C0475
:100E900003C022E020937C0444E050E069E774E062
:100EA0000E94F4060895FC01EB5AFF4F2081318126
:100EB0002F7D31832083E9E7F4E029E0208320E1DE
:100EC0002183128243E050E0BF010E94F40608959E
:100ED000FC01EB5AFF4F208131812F7B318320832E
:100EE000E9E7F4E021E0208320E12183128243E05E
:100EF00050E0BF010E94F4060895DC01FC01EB5AAA
:100F0000FF4F808191818D7F91838083E9E7F4E0B9
:100F100089E0808384E0818387E0828350968C918E
:100F20005097838351968C915197848352968C91DC
:100F30005297858353968C915397868354968C91C0
:100F40005497878355968C915597808711864AE0F0
:100F500050E0BF01CD010E94F4060895DC01FC01C0
:100F6000EB5AFF4F80819181877F91838083E9E7EE
:100F7000F4E089E1808384E081838AE08283509673
:100F80008C915097838351968C915197848352967C
:100F90008C915297858353968C9153978683549660
:100FA0008C915497878355968C915597808781E0D3
:100FB00081871286138614864DE050E0BF01CD0173
:100FC0000E94F40608950F931F93CF93DF938C0133
:100FD000EB01E9E7F4E083E180838CE08183DB01CE
:100FE0000D900020E9F7CD01861B828390E0292F28
:100FF00030E0FE0101900020E9F73197EC1BFD0B7A
:101000002E173F0750F4FE01E20FF31F8081F90114
:10101000E758FB4F83839F5FEACFE92FF0E0E75863
:10102000FB4F1382FE0101900020E9F7AF014C1B3A
:101030005D0B4D5F5F4F69E774E0C8010E94F406E5
:10104000DF91CF911F910F910895FC01EB5AFF4F53
:10105000208131812F7731832083E9E7F4E021E09B
:10106000208324E0218325E0228323E323832BE8CC
:1010700024832EE9258320E326832AE0278348E082
:1010800050E0BF010E94F4060895E9E7F4E022E091
:10109000208324E02183128243E050E0BF010E94BC
:1010A000F4060895DB01FC01EB5AFF4F20813181EA
:1010B0002D7F3E7F31832083E9E7F4E025E0208324
:1010C00024E021832DE022832C91238311962C91FF
:1010D0001197248312962C911297258313962C91A5
:1010E0001397268314962C911497278315962C9189
:1010F000208728E121872CEC228721E02387148692
:1011000015861686178640E150E0BF010E94F4065E
:101110000895BC01605F7F4F0E9452080895CF93ED
:10112000DF93EC01E9E7F4E08DE0808384E08183E4
:1011300087E1828388898383898984838A898583F7
:101140008B8986838C8987838D8980878FA9882363
:1011500031F186E080938204FE01E65BFF4F8081DF
:10116000882361F0DE011896E3E8F4E029E834E032
:101170008D9181932E173F07D9F749C0DE01509614
:10118000E3E8F4E029E834E08D918193E217F30776
:10119000D9F73DC01192E817F907E1F730C0AE81E9
:1011A000BF81FD0101900020E9F73197EA1BFB0B9D
:1011B000E093820490E0292F30E0AE81BF81FD01F1
:1011C00001900020E9F73197EA1BFB0B2E173F0730
:1011D00018F0903160F013C0FD01E20FF31F808121
:1011E000E92FF0E0E758FB4F82879F5FE4CFE92FBC
:1011F000F0E0E758FB4F12869F5F9031C1F74AE15C
:1012000050E069E774E0CE010E94F40605C0E9E809
:10121000F4E083E994E0BECFDF91CF910895DC0143
:10122000E9E7F4E08EE0808384E0818386E08283D6
:1012300050968C915097838351968C9151978483CB
:1012400052968C915297858353968C9153978683AF
:1012500054968C915497878355968C915597808797
:1012600049E050E0BF01CD010E94F4060895DC0181
:10127000E9E7F4E08CE0808384E0818386E0828388
:1012800050968C915097838351968C91519784837B
:1012900052968C915297858353968C91539786835F
:1012A00054968C915497878355968C915597808747
:1012B00049E050E0BF01CD010E94F4060895E9E73E
:1012C000F4E021E1208324E0218322E02283DC0179
:1012D0001E963C911E971F962C9133832F7024836A
:1012E00045E050E0BF010E94F4060895FC01EB5A6E
:1012F000FF4F208131812B7F31832083E9E7F4E0A8
:1013000026E0208324E0218323E0228363837F700F
:10131000748323E1258346E050E0BF010E94F40678
:1013200008958F929F92AF92BF92CF92DF92EF92E9
:10133000FF920F931F93CF93DF93EC01E091790419
:101340008E2F90E0FC013197E032F10508F0D0C219
:10135000E65AFF4F0C94CB1D80917E04811100C38F
:10136000FE01EB5AFF4F20813181C90181609183D9
:10137000808380917C04813061F480917D04803190
:1013800009F0EEC280917F048CAB2164318320830D
:10139000E7C2893009F0E4C280917D04803109F010
:1013A000DFC2EFE7F4E0DE01189645E854E08191F2
:1013B0008D93E417F507D9F7CB5ADF4F21623983B4
:1013C0002883CEC280917B04882309F4C9C260E8D7
:1013D00087E798E00E94161360E880917B040E94E2
:1013E0002913BEC2FE01E95AFF4F8081853080F08B
:1013F0008FA981118CC28CAD811193C209C01DAA25
:101400001FAA1AAE1CAE8BE0FE01E05BFF4F80838B
:10141000C95ADF4F88818F5F8883A2C280917B0485
:10142000882309F49DC260E88CE298E00E941613BC
:1014300009E714E060E8D80112968C910E94291304
:10144000D8011296EC91EE2309F48AC2812C912CDA
:101450006E01BDE4CB0ED11C8E01025B1F4F7E01DD
:10146000FFE4EF0EF11C0F2EF9E7AF2EF4E0BF2ED4
:10147000F02DEE0FEE0FEE0FE80DF0E0E758FB4F0A
:101480008481D6018C938581D8018C938681F70164
:10149000808360E888E198E00E94161360E8D70135
:1014A0008C910E94291360E886E198E00E9416134F
:1014B00060E8F80180810E94291360E884E198E0E7
:1014C0000E94161360E8D6018C910E9429138FA9FF
:1014D000882381F1F701808181112CC0D8018C9182
:1014E000857009F45EC0F60180818C7009F423C216
:1014F00081E0FE01E55BFF4F8083892D90E0FC01D8
:10150000EE0FFF1FE80FF91FEE0FFF1FE458FB4F10
:10151000DE0150969E012A5E3F4F81918D932A17DE
:101520003B07D9F7CB5ADF4F88819981806899832F
:10153000888316C28CAD8823A1F1D8018C91857067
:1015400081F1F6018081982F987C59F188232CF441
:1015500060E886E098E00E941613FE01E35BFF4F0F
:10156000808186FF05C060E885EF97E00E94161332
:10157000FE01E35BFF4F808183FFE1C160E885EE00
:1015800097E00E941613DBC181918D932A173B07C8
:10159000D9F7CB5ADF4F88819981806899838883F6
:1015A000DFC19394D5011296EC91B3E08B0E9E1699
:1015B00008F45FCFD5C1FE01EB5AFF4F80819181C6
:1015C00091609183808380917B04811118C060E8D1
:1015D0008CEC97E00E941613E9E7F4E084818F70A9
:1015E00090E0982F88272381822B9F878E87CB5A64
:1015F000DF4F88819981826099838883B1C1C05B04
:10160000DF4F87E0888360E886EB97E00E9416133F
:1016100060E880917B040E942913A2C180917B0421
:1016200081119EC1CB5ADF4F888199818D7F846063
:101630009983888395C180917B04811191C18091A8
:1016400082048E8B882369F0E3E8F4E0DE0157968C
:1016500020EA34E081918D93882319F0E217F30793
:10166000C9F7CB5ADF4F8881998188609983888335
:1016700077C1EBE7F4E0DE01509621E834E0819198
:101680008D93E217F307D9F7E9E7F4E09085DE01DF
:10169000A35BBF4F9C93818511968C932285FE019D
:1016A000E15BFF4F2083857011F1892F887CF9F071
:1016B00099232CF460E880EA97E00E941613FE015B
:1016C000E35BFF4F808186FF05C060E887E897E015
:1016D0000E941613FE01E35BFF4F808183FF05C06C
:1016E00060E88FE697E00E94161381E08BAF60E818
:1016F0008BE597E00E941613FE01E15BFF4F60E867
:1017000080810E94291360E889E597E00E94161302
:10171000FE01E25BFF4F60E880810E94291360E8D0
:1017200087E597E00E941613FE01E35BFF4F60E838
:1017300080810E942913FE01EB5AFF4F8081918125
:10174000806191838083C05BDF4F8CE0888308C118
:101750008FA9882349F060E880E497E00E9416137F
:10176000CE010E948F08FCC08E819F81892B71F071
:1017700060E883E297E00E94161360E88E819F8103
:101780000E941613CE010E948F08EAC060E882E131
:1017900097E00E941613CE010E940F09E1C060E895
:1017A0008BEF96E00E941613CE010E943709D8C035
:1017B00080917B0481111DC08FA9882359F08DA9C8
:1017C000811108C060E889ED96E00E94161381E05F
:1017D0008DABC6C08CAD882309F4C2C08AAD81111F
:1017E000BFC060E884EB96E00E94161381E08AAFE8
:1017F000B7C060E881EA96E00E94161360E8809125
:101800007B040E9429136E857F85CE010E94760994
:10181000C05BDF4F81E18883A3C060E88BE896E07E
:101820000E9416139DC060E88CE796E00E94161394
:1018300097C0CB5ADF4F88819981986099838883BC
:101840008FC060E889E696E00E94161389C060E8C0
:101850008CE496E00E94161383C060E88DE296E067
:101860000E9416137DC060E883E196E00E94161383
:1018700077C060E888EF95E00E94161371C060E8B9
:101880008AED95E00E9416136BC060E880EC95E04D
:101890000E94161365C080917B0481110DC060E821
:1018A00081EA95E00E941613CB5ADF4F8881998117
:1018B00094609983888354C060E884E895E00E942E
:1018C00016134EC080917B0481110DC0CB5ADF4F9F
:1018D0008881998192609983888360E884E695E0A5
:1018E0000E94161305C060E888E495E00E94161374
:1018F000809179048823A1F160E880E395E00E945B
:10190000161360E8809179040E94291329C0FE0112
:10191000E95AFF4F108260E88FE598E00E941613A5
:101920006ECDFE01E95AFF4F108260E884E498E032
:101930000E94161364CD8CAD811103CE32CE892D59
:1019400090E0FC01EE0FFF1FE80FF91FEE0FFF1FE5
:10195000E458FB4FDE0150969E012A5E3F4F14CEA5
:10196000DF91CF911F910F91FF90EF90DF90CF907B
:10197000BF90AF909F908F900895E9E7F4E024E244
:1019800020832CE0218323E02283138221E024831F
:10199000158246E050E0BF010E94F4060895E9E791
:1019A000F4E02FE0208324E0218322832CE02383B2
:1019B000148228E125832CEC268347E050E0BF0108
:1019C0000E94F4060895E9E7F4E020E220832CE089
:1019D000218321E02283138244E050E0BF010E9472
:1019E000F4060895DF92EF92FF920F931F93CF9327
:1019F000DF93FC01E05BFF4FE0814E2F50E0483168
:101A0000510508F079C3EC01FA01E658FF4F0C9438
:101A1000CB1DFC01EF5AFF4F80819181019691838C
:101A200080833296208131812817390708F064C3FA
:101A3000CE010E941E07FE01E05BFF4F81E0808324
:101A4000CF5ADF4F1982188257C3FC01EF5AFF4F5C
:101A5000808191810196918380833496208120FF3B
:101A600011C034971182108260E88BE195E00E94EA
:101A70001613FE01E05BFF4F82E08083CE010E94DF
:101A8000BD0C3AC3FE01ED5AFF4F2081318128176A
:101A9000390708F031C3C901880F991F220F331F7E
:101AA000220F331F220F331F280F391F213D87E0DC
:101AB000380718F43183208307C080ED97E0FE01DA
:101AC000ED5AFF4F9183808360E880E095E00E94AB
:101AD0001613FE01E05BFF4F1082CF5ADF4F1982D1
:101AE00018820AC3FC01EB5AFF4F808180FF0DC0B2
:101AF00060E889EE94E00E941613CE010E94BD0CAE
:101B0000C05BDF4F82E08883F7C2CE010E94BD0C2C
:101B1000C05BDF4F82E08883EFC2FC01EB5AFF4FCE
:101B2000808180FFE9C260E881ED94E00E94161395
:101B3000FE01E05BFF4F83E08083CE010E945307EC
:101B4000DBC2FC01EB5AFF4F808185FFD5C260E804
:101B500085EB94E00E9416138E01025F1F4F7E01F9
:101B600099E0E90EF11C60E8D8018E918D010E9488
:101B7000291360E883EB94E00E9416130E151F05ED
:101B800091F760E888850E942913CE010E946807BA
:101B9000C05BDF4F84E08883AFC2FC01EB5AFF4F8C
:101BA000808186FFA9C26C817D816115710541F03C
:101BB000CE010E94E307C05BDF4F85E088839CC2B3
:101BC000C05BDF4F87E0888397C2FC01EB5AFF4F71
:101BD000808180FF91C260E88CE994E00E94161336
:101BE0008C819D810E94F212CE010E943007C05B61
:101BF000DF4F87E0888380C28CAD811104C08FA93C
:101C0000811104C016C08FA9882331F060E884E1F7
:101C100094E00E94161305C060E88BEE93E00E94EA
:101C20001613CE010E942508C05BDF4F88E0888331
:101C300063C2C05BDF4F8BE088835EC2FC01EB5A5E
:101C4000FF4F808187FF58C2CE010E9445088FA9AF
:101C5000882331F060E88BED93E00E94161305C0F5
:101C600060E888EC93E00E94161360E880EA93E055
:101C70000E9416138FA9882331F060E88FE893E063
:101C80000E94161305C060E88AE793E00E941613CD
:101C900060E886E593E00E9416138FA9882331F04F
:101CA00060E88EE493E00E94161305C060E887E4C4
:101CB00093E00E941613FE01E55BFF4F80818823AD
:101CC00041F0CE010E94AE07C05BDF4F8DE08883FC
:101CD00013C2C05BDF4F89E088830EC2FC01EB5A60
:101CE000FF4F808180FF08C28FA9882331F060E810
:101CF0008FE293E00E94161305C060E884E193E050
:101D00000E941613FE01E55BFF4F1082CE010E9478
:101D10008908C05BDF4F8AE08883EEC1FC01EB5A83
:101D2000FF4F8081918190FFE7C181FF16C08FA98D
:101D3000882331F060E88DEF92E00E94161305C011
:101D400060E883EE92E00E941613CE010E945F09C4
:101D5000C05BDF4F8BE08883CFC160E88EEB92E001
:101D60000E941613CE010E948908C6C18DA9811157
:101D7000C3C18FA98111C0C18AAD8111BDC18CAD14
:101D80008111BAC160E887E992E00E941613CE0182
:101D90000E94300781E08883C05BDF4F8CE088833E
:101DA000ABC1FC01EB5AFF4F808184FF0EC018824B
:101DB00060E889E792E00E941613CE010E94AE0708
:101DC000C05BDF4F8DE0888397C182FF95C1C05B08
:101DD000DF4F81E1888390C1FC01EB5AFF4F808186
:101DE00083FF8AC160E889E692E00E941613F12C15
:101DF0008E010A5E1F4FD02EE12EF80101900020C7
:101E0000E9F73197E01BF10B8F2D90E08E179F07BC
:101E100048F4FE01EF0DF11D60E886890E942E1343
:101E2000F394E9CF48E050E06FE071E0802F912F0C
:101E30000E94F81D892B09F04AC081E08EAB18AED4
:101E400019AEFE01E65BFF4F108260E881E592E08B
:101E50000E94161346E150E068E171E0802F912F57
:101E60000E94F81D892B41F460E888E392E00E940B
:101E7000161381E088AF2BC046E150E06FE271E0BD
:101E8000802F912F0E94F81D892B69F460E880E271
:101E900092E00E94161381E0FE01E65BFF4F808313
:101EA00088AF89AF14C043E150E066E471E0802F51
:101EB000912F0E94F81D892B51F460E88BE092E08D
:101EC0000E94161381E0FE01E65BFF4F8083FE0156
:101ED000E15BFF4F808181111CC031978081853289
:101EE000C1F4319780818830A1F443E150E06AE584
:101EF00071E08D2D9E2D0E94F81D892B51F460E814
:101F00008CEE91E00E94161381E0FE01E45BFF4F2E
:101F100080838FA9882359F0FE01E55BFF4F808104
:101F2000882329F0C05BDF4F89E08883E5C0CE01BC
:101F30000E94E30CC05BDF4F86E18883DDC0FC01BB
:101F4000EB5AFF4F808180FFD7C060E88DEC91E0B5
:101F50000E941613CE010E947D07C05BDF4F8EE00A
:101F60008883CAC0FC01EB5AFF4F808181FFC4C047
:101F700060E885EB91E00E9416138E010A5E1F4F08
:101F80007E01B1E1EB0EF11C60E8F80182918F0156
:101F90000E94291360E883EB91E00E941613E0167B
:101FA000F10691F760E888890E942913FE01E45B3D
:101FB000FF4F8081882311F081E08AAF19821A8255
:101FC0001B82FE01EB5AFF4F11821082C05BDF4F74
:101FD00087E1888391C0FC01EB5AFF4F808191819A
:101FE00093FF05C060E88AE891E00E941613C05B89
:101FF000DF4F80E1888380C0FC01EB5AFF4F808176
:10200000918192FF79C060E880E791E00E94161309
:10201000FE01E05BFF4F84E18083CE010E94AE07AA
:102020006BC0FC01EB5AFF4F808183FF65C060E805
:1020300089E591E00E941613CE010E94CF0CC05B8F
:10204000DF4F82E1888358C0FC01EB5AFF4F80814B
:10205000918191FF05C060E883E491E00E9416132E
:10206000C05BDF4F80E1888347C0FC01EF5AFF4F20
:10207000208131812F5F3F4F293EF3E03F0728F455
:10208000CF5ADF4F3983288337C0FC01EF5AFF4F07
:1020900011821082C05BDF4F8BE088832DC0FC0172
:1020A000EB5AFF4F808182FF27C060E884E291E015
:1020B0000E941613FE01EB5AFF4F1182108280E43A
:1020C000E9E7F4E0DF01982F1D929A95E9F7FE0108
:1020D000E85AFF4FDF011D928A95E9F71FAA1EAA51
:1020E0001DAA3D9710821CAE1BAE1AAE319610820F
:1020F000C05BDF4F8BE08883DF91CF911F910F9101
:10210000FF90EF90DF9008958F929F92AF92BF92D1
:10211000CF92DF92EF92FF92CF93DF93EC010E9478
:102120004613822E932EA42EB52EFE01FE9680819C
:102130009181A281B381881A990AAA0ABB0A42F442
:1021400080914B02811104C080914A028823A1F042
:1021500080914B02882341F010924B02CE010E94E5
:102160009109CE010E94F20C80914A0281111092D5
:102170004A02CE010E94D8060E944613822E932E58
:10218000A42EB52EFE01FE96C85BDF4F888190E03D
:10219000A0E0B0E0880E991EAA1EBB1E808291822C
:1021A000A282B38280E0DF91CF91FF90EF90DF9029
:1021B000CF90BF90AF909F908F9008958F929F92F5
:1021C000AF92BF92CF92DF92EF920F931F93CF9374
:1021D000DF93CDB7DEB78DB69EB6C22ED12CC60129
:1021E0000896EDB7FEB7E81BF90B0FB6F894FEBFE3
:1021F0000FBEEDBF8DB79EB701965C0161837F7006
:102200007062FC01718384E0820F8283C6010496B0
:102210009383248315820683E782C114D10451F08D
:10222000FA01D50118964C0D5D1D81918D93E4172F
:10223000F507D9F782E00E94AC128501F8E0CF0ED5
:10224000D11CAC0CBD1CF80181918F010E94AC1215
:10225000A016B106C1F70FB6F8949EBE0FBE8DBE94
:10226000DF91CF911F910F91EF90DF90CF90BF90B2
:10227000AF909F908F900895EF920F931F93CF93FD
:10228000DF93D801FC01E856FF4F53E05083EC0187
:10229000C756DF4F4883219648E04883219618822D
:1022A000E9014881EC01C456DF4F4883E9012981E7
:1022B000EC01C356DF4F28832C9121962883119679
:1022C0002C91DC01A156BF4F2C931196EC921196E4
:1022D0001C9211961C9211961C92E12C01E02CE0AC
:1022E000AF010E94DE10DF91CF911F910F91EF900F
:1022F0000895EF920F93FC01E856FF4F54E050838E
:10230000DC01A756BF4F4C93119648E04C931196B1
:102310001C92D9014C91DC01A456BF4F4C93D901BA
:1023200011962C91DC01A356BF4F2C9311961C9251
:1023300011961C92119621E02C93119622E02C9379
:1023400011962FEF2C9311962C93E12C01E02CE0A9
:10235000AF010E94DE100F91EF900895EF920F935E
:10236000FC01E856FF4F55E05083DC01A756BF4FF4
:102370004C9311964AE04C9311961C92D9014C91C2
:10238000DC01A456BF4F4C93D90111962C91DC016E
:10239000A356BF4F2C9311961C9211961C92119626
:1023A0001C9211961C92119621E02C93119622E01A
:1023B0002C93119630EA3C9311962C93E12C01E07A
:1023C0002EE0AF010E94DE100F91EF900895EF9282
:1023D0000F931F93CF93DF93D801FC01E856FF4F73
:1023E00056E05083EC01C756DF4F4883219644E006
:1023F000488321961882E9014881EC01C456DF4FD9
:102400004883E9012981EC01C356DF4F28832C91D1
:102410002196288311962C91DC01A156BF4F2C9355
:10242000E12C01E028E0AF010E94DE10DF91CF91A6
:102430001F910F91EF900895EF920F931F93CF93F9
:10244000DF93D801FC01E856FF4F57E05083EC01C1
:10245000C756DF4F4883219644E04883219618826F
:10246000E9014881EC01C456DF4F4883E901298125
:10247000EC01C356DF4F28832C91219628831196B7
:102480002C91DC01A156BF4F2C93E12C01E028E0F8
:10249000AF010E94DE10DF91CF911F910F91EF905D
:1024A0000895877080611092A0008093A10080ED54
:1024B00097E09093A7008093A600789480E28093A1
:1024C0007200089591EA94BD95B58770982B95BDDB
:1024D0008AB1806E8AB9209A089591EA909380001B
:1024E00087708093810084B18E6184B9089591EAE8
:1024F00090939000E1E9F0E090818770982B9083B1
:10250000529A5A9A08958A3010F0895C0895805D35
:1025100008951F93CF93DF93182F82958F700E9499
:102520008312C7E4D2E08883812F8F700E948312C8
:1025300089831A82CE01DF91CF911F9108959093E4
:10254000C5008093C40088E98093C1008EE0809329
:10255000C200269A27980895E0ECF0E0908195FF5C
:10256000FDCF8093C60008959093CD008093CC005A
:1025700088E38093C9008EE08093CA00089510928A
:10258000C90008959091C80095FF24C090914D0214
:10259000992329F11FC0E9ECF0E0908190629083CB
:1025A00020914C0290914D02291304C010924D02CB
:1025B00010924C0290914D029F3F99F0E0914D0294
:1025C000F0E0E658FC4F808380914D028F5F80934E
:1025D0004D0208959091C90095FFDDCFE1CF809322
:1025E000CE000895CF93DF93EC018DE00E94C212DC
:1025F0008AE00E94C2128881882331F021960E94CD
:10260000C21289918111FBCFDF91CF910895CF93B1
:10261000DF93EC018881882331F021960E94C21259
:1026200089918111FBCFDF91CF910895CF93DF93F3
:10263000EC01FC018491882349F0FE0184910E9401
:10264000C2122196FE0184918111F7CFDF91CF91C3
:1026500008950E9489120E94071308950E94C212D1
:10266000089589E184B980E88AB915B81BB881E07A
:102670000E94771281E00E9451128CE090E00E944B
:10268000B41281E090E00E949F1208952091A70566
:102690003091A8054091A9055091AA056091AB051C
:1026A0007091AC058091AD059091AE0508958F9223
:1026B0009F92AF92BF92CF92DF92EF92FF920F93D1
:1026C0001F93CF93DF93A090A705B090A805C0906B
:1026D000A905D090AA05E090AB05F090AC0500915B
:1026E000AD051091AE05282F392F40E050E060E095
:1026F00070E080E090E00E94D11D822E932ED42FB6
:10270000C52FB62FA72FF82FE92FA090A705B090BF
:10271000A805C090A905D090AA05E090AB05F0905F
:10272000AC050091AD051091AE05282D392D4D2F2A
:102730005C2F6B2F7A2F8F2F9E2F0E94EF1D28F773
:10274000DF91CF911F910F91FF90EF90DF90CF908D
:10275000BF90AF909F908F9008959093A60580931F
:10276000A50508951F920F920FB60F9211242F9373
:102770003F934F935F936F937F938F939F93AF9309
:10278000BF93EF93FF939091C60080914602811111
:1027900015C08EEF890F833008F09EC090934502DC
:1027A00081E080934602923031F0943009F09FC06E
:1027B00010924B029CC010924A0299C02091430291
:1027C000309144022C3261E0360708F08CC08091D1
:1027D0004502823021F0843009F44BC07DC0F901FC
:1027E000E25BFD4F9083A9014250510942305105EF
:1027F000C0F42230310541F4892F90E00496909383
:102800000201809301010DC02330310551F4409144
:10281000010150910201BA01792B7093020160937A
:1028200001012F5F3F4F3093440220934302809178
:102830000101909102012817390709F04DC08091DC
:1028400001019091020190930401809303018BE2B6
:1028500091E0909302018093010181E080934A020C
:10286000109244021092430280934A021092460250
:102870003EC0F901E758FB4F90832130310539F410
:10288000892F90E0029690930201809301012F5FBF
:102890003F4F309344022093430280910101909175
:1028A000020128173907C1F48091010190910201BA
:1028B00090930401809303018BE291E090930201D5
:1028C0008093010181E080934B02109244021092A8
:1028D0004302109246020BC0809143029091440241
:1028E0008C32914020F08AEB91E00E94F212FF912D
:1028F000EF91BF91AF919F918F917F916F915F9178
:102900004F913F912F910F900FBE0F901F901895F0
:102910001F920F920FB60F9211248F939F93EF93F4
:10292000FF9380914D02811109C08091C90085FFFC
:1029300005C0E9ECF0E080818F7D808380914D02BD
:102940008823B9F0E0914C02F0E0E658FC4F80811A
:102950008093CE0080914C028F5F80934C029091C7
:102960004C0280914D02981304C010924D021092B7
:102970004C02FF91EF919F918F910F900FBE0F909E
:102980001F9018951F920F920FB60F9211242F933C
:102990003F934F935F936F937F938F939F93AF93E7
:1029A000EF93FF932091A7053091A8054091A905C9
:1029B0005091AA056091AB057091AC058091AD0571
:1029C0009091AE05A1E00E94DA1D2093A7053093F7
:1029D000A8054093A9055093AA056093AB05709391
:1029E000AC058093AD059093AE058091A5059091BF
:1029F000A60520914102309142022817390708F4B8
:102A000040C01092420210924102E0914002E63929
:102A100080F480910001882361F0EF5FE093400231
:102A2000F0E0E257F74FE491F0E0F0939B00E09381
:102A30009A00E0914002E63939F480910001882340
:102A400049F01092000106C0EE23A1F08091000130
:102A5000811117C0E150E0934002F0E0E257F74FD8
:102A6000E491F0E0F0939B00E0939A0080914002A3
:102A7000811107C080910001811103C081E0809322
:102A8000000180914102909142020196909342028E
:102A900080934102FF91EF91AF919F918F917F9130
:102AA0006F915F914F913F912F910F900FBE0F90BB
:102AB0001F901895CF93DF93CDB7DEB7CD57D14098
:102AC0000FB6F894DEBF0FBECDBF8FEF8AB984B9C1
:102AD0008DB987B918B81EB81BB815B880E090E05A
:102AE0000E94AD130E94311389EC91E00E94F21212
:102AF00082EF91E00E94F2120E944613722E832E02
:102B00000F2EF3E09F2EF02D80914B02811116C005
:102B10000E944613A72CB82CC12CD12CE12CF12CEF
:102B200000E010E00E94E61D2738334141055105C1
:102B3000610571058105910539F330F310924B025F
:102B40009A949110E1CF89E092E00E94F21281E222
:102B500092E00E94F21282E090E00E94AD13CE015A
:102B600001960E948D06A12CC12CE12C00E020E0F2
:102B700040E0BE016F5F7F4FCE0189559F4F0E949D
:102B8000DA17CE0101960E94AF0662961FAE6297D9
:102B9000CE0101960E94F20C8E0109551F4FE02EC6
:102BA000F12EF8018585811104C082E090E00E9439
:102BB000AD13CE0101960E948410F801858588230B
:102BC00081F388E090E00E94AD1360E18E2D9F2D8F
:102BD0000E942218882341F08CE899E00E94F212AA
:102BE0008E2D9F2D0E94B81760E08E2D9F2D0E9484
:102BF0005818D82E63E08E2D9F2D0E9458186D2DE9
:102C00000E94BF16CECF84B1896184B9579A89E0FA
:102C100085B981E00E94621281E00E946D120895E0
:102C200085B1867E85B95F9817BC18BC1092890063
:102C30001092880010928B0010928A0008958038BC
:102C4000910530F09C012058310980E091E007C0E7
:102C5000805891099C012095309580E090E0220FEA
:102C6000331F21602B3F310530F42530310528F426
:102C700020E030E002C02FEF30E0822B08950F9368
:102C80001F93CF93DF938B010E941F16EC01C801A5
:102C90000E941F16BE01772761157105D1F0AE01A4
:102CA00044275170D0FF0AC090FD1DC09927861798
:102CB0009707D8F4AE01481B590B1BC090FF18C0F2
:102CC0009C01332726173707A0F4AE01421B530B94
:102CD00010C0AC0155274115510559F090FF09C0AE
:102CE000AC01516006C0AE0104C040E051E001C03B
:102CF000AE01CA01DF91CF911F910F9108950F93FB
:102D00001F93CF93DF938B010E941F16EC01C80124
:102D10000E941F16BE01772761157105D1F0D0FF03
:102D20000AC090FF20C0992786179707F0F4AE01DC
:102D3000481B590B1EC0AC014427517090FD18C0B0
:102D40009C01332726173707A0F4AE01421B530B13
:102D500010C0AC0155274115510559F090FD09C02F
:102D6000AC01516006C0AE0104C040E051E001C0BA
:102D7000AE01CA01DF91CF911F910F910895EF929B
:102D8000FF920F931F93CF93DF93062F10E0C82F6E
:102D9000D0E0B801CE010E943F167C019093B205AD
:102DA0008093B105B801CE010E947F169093B005C3
:102DB0008093AF05F0FE06C0289B33C092C02899CF
:102DC00042C009C08091B1059091B20590FD0BC041
:102DD0005F9B3BC08BC08091B1059091B20590FD87
:102DE00002C05F993EC08091AF059091B00590FF01
:102DF00006C02B9B38C07FC02B9951C009C0809161
:102E0000AF059091B00590FD80C02C9B4EC078C05E
:102E10008091AF059091B00590FD77C02C995BC073
:102E200074C017BC18BC289A5F9885E090E00E9497
:102E300057138091B10588BD8091B1059091B2057D
:102E400090FDBDCFC5CF88BDBDCF17BC18BC5F9A64
:102E5000289885E090E00E9457138091B10587BDC6
:102E6000BACF87BDC0CF1092890010928800CAE8FF
:102E7000D0E0198218822B9A2C9885E090E00E946D
:102E800057138091AF059091B00599279983888356
:102E90008091AF059091B00590FDAECFB6CF992748
:102EA00090938B0080938A00AACFC8E8D0E0198263
:102EB000188210928B0010928A002C9A2B9885E031
:102EC00090E00E9457138091AF059091B00599272B
:102ED000998388839DCF9927909389008093880058
:102EE00014C08091B1059091B20569CF8091B10570
:102EF0009091B20576CF8091AF059091B0057CCFCF
:102F00008091AF059091B00589CFDF91CF911F914E
:102F10000F91FF90EF900895CF93DF93EC011D8602
:102F20001E861F86198A188619861A861B861A8A93
:102F3000EC81FD81E85BFF4F8AE0808382E090E0D6
:102F40000E94AD138CE090E00E94B4120E94101613
:102F5000EDE8FCE0DE01A359BF4F2DEB3CE084918E
:102F60008D933196E217F307D1F7DF91CF91089552
:102F70000F931F93CF93DF93EC014C854F5F4C87EA
:102F80008C010B521F4F9C012D523F4F6E817F8150
:102F90008C819D810E94E711E881F9810480F5818F
:102FA000E02DCE01099589E08A8BDF91CF911F91A9
:102FB0000F910895AF92CF92EF920F93FC0175831A
:102FC0006483DB01AE5BBF4F8D939C9386E392E0FD
:102FD00091838083A481B5811D964C93A481B58192
:102FE0001C962C93A481B5811B960C93A481B5816A
:102FF0001A96EC92A481B5811996CC92A481B581E0
:103000001896AC92DF01A559BF4F82E58C931196BB
:1030100081E08C93D19682EA8C93119682E08C9316
:10302000D39680E48C9311961C92139681E48C9332
:1030300011961C92CF010E948C170F91EF90CF90A8
:10304000AF900895CF92DF92EF92FF920F931F936C
:10305000E62FF0E0EE0FFF1FEE0FFF1FEA5CF34FCD
:10306000C590D590E590F490FC01478D50A161A1E9
:1030700072A1970186010095109520953095042343
:10308000152326233723078F10A321A332A34C2116
:103090005D216E217F2181E0452B462B472B09F4D2
:1030A00080E01F910F91FF90EF90DF90CF900895F7
:1030B000860F911DFC0182AD0895AF92BF92CF9211
:1030C000DF92EF920F931F93CF93DF93EC018A89E6
:1030D000853009F4C8C030F4882371F0843009F4D5
:1030E00045C0D8C0883009F486C0893009F4A1C031
:1030F000863009F0CFC045C0888580FFCBC060E82E
:1031000083EB9AE00E9416136E018FECC80ED11C5F
:103110005E01A1EDAA0EB11C6E817F81EE24E394C5
:10312000860195014C858C819D810E943C1185E032
:1031300090E00E9457136E817F81E12C95014C85B0
:103140008C819D810E943C118C858F5F8C8785E0EE
:1031500090E00E9457136E817F8196014C858C818F
:103160009D810E94791184E08A8B94C0888581FFBB
:1031700091C060E88DE89AE00E94161386E08A8B81
:1031800089C0888584FF86C060E881E69AE00E9455
:1031900016136E01B3EDCB0ED11C5E0185EDA80EAA
:1031A000B11C6E817F81EE24E394860195014C85EC
:1031B0008C819D810E943C1185E090E00E94571314
:1031C0006E817F81E12C95014C858C819D810E94CF
:1031D0003C118C858F5F8C8785E090E00E945713AF
:1031E0006E817F8196014C858C819D810E94791131
:1031F00088E08A8B4FC0888585FF4CC060E889E3F2
:103200009AE00E94161388898D3451F480E4FE01FF
:10321000BB96DF011D928A95E9F781E18A8B02C096
:1032200082E18A8B0E9446132BA33CA34DA35EA38D
:1032300031C0888587FF2EC060E888E19AE00E944F
:1032400016134C854F5F4C878E010F521F4F9E0106
:1032500021533F4F6E817F818C819D810E94E711B8
:1032600085E08A8B17C0888583FF14C060E889EFEA
:1032700099E00E9416136E817F818C819D810E944E
:1032800076098FEF9FEF9F838E83188619861A86A3
:103290001B861A8ADF91CF911F910F91EF90DF90DB
:1032A000CF90BF90AF900895EF92FF920F931F932E
:1032B000CF93DF93DC011496ED91FC9115978181FA
:1032C00081113FC01D968C911D9781113AC01E96A9
:1032D0008C911E97811135C01F968C911F9781117B
:1032E00030C051968C91519781112BC085A98111C5
:1032F00028C086A9811125C087A9811122C0EB01B0
:1033000088858230F1F48D8590E0982F88272C8570
:10331000822B4197B1F481E0818351968C93519730
:103320001496ED91FC9115978685978517969C9339
:103330008E93169752961C925297868950968C932C
:1033400050971696ED90FC901797FB01808190E0C6
:10335000970133278217930709F0F0C1218130E0EC
:103360008F2D992780622817390709F0E7C1D5C149
:103370008BA9813009F4CDC1823009F061C060E8C9
:1033800083E19CE00E94161360E888AD0E94291337
:1033900060E881E19CE00E94161360E88FA90E941A
:1033A000291360E889E09CE00E94161360E88AAD6A
:1033B0000E94291360E887E09CE00E94161360E8F1
:1033C00089AD0E94291360E889EF9BE00E941613E3
:1033D00060E88CA90E94291388AD90E0982F882777
:1033E0002FA9822B81319105A1F48CA98C8789ADFD
:1033F000FE01E153FF4F80838AAD3196808388853B
:103400009985AA85BB85816088879987AA87BB87AC
:1034100080C1439709F07DC18CA98C8789ADFE01DD
:10342000ED52FF4F80838AAD3196808388859985E0
:10343000AA85BB85806188879987AA87BB8769C170
:10344000853009F03EC08CAD90E0982F88272BADD9
:10345000822B892B09F05DC18FA9FE01EF52FF4F2E
:103460009081891314C028AD3196908129130FC023
:1034700060E884ED9BE00E94161388859985AA85F3
:10348000BB85826088879987AA87BB8742C1FE0176
:10349000EB52FF4F908189133CC198AD31968081EA
:1034A000981337C160E88DEA9BE00E941613888567
:1034B0009985AA85BB85806288879987AA87BB87FB
:1034C00028C18430B9F58FA9FE01EF52FF4F9081DA
:1034D000891315C028AD31969081291310C060E87A
:1034E00089E89BE00E9416136E817F819E01215323
:1034F0003F4F4CA98C819D810E94AE110AC1FE01F3
:10350000EB52FF4F9081891304C198AD31968081B1
:103510009813FFC060E883E69BE00E9416136E815B
:103520007F819E012D523F4F4CA98C819D810E942D
:10353000AE11EFC0863009F041C08FA9FE01EF52F5
:10354000FF4F908189131AC028AD319690812913BD
:1035500015C04CA94C878E0101531F4F9E012F525D
:103560003F4FB7018C819D810E941C12E881F98137
:103570000480F581E02DCE010995CBC0FE01EB5210
:10358000FF4F90818913C5C098AD31968081981303
:10359000C0C04CA94C878E010D521F4F9E012B526B
:1035A0003F4FB7018C819D810E941C12E881F981F7
:1035B0000480F581E02DCE010995ABC08730C9F5B7
:1035C0008FA9FE01E153FF4F9081891316C028ADEA
:1035D00031969081291311C060E88CE39BE00E9432
:1035E00016138CA98C8788859985AA85BB858860E8
:1035F00088879987AA87BB878CC0FE01ED52FF4F51
:103600009081891386C098AD31968081981381C0CE
:1036100060E883E19BE00E9416138CA98C87888563
:103620009985AA85BB85806888879987AA87BB8783
:1036300070C060E88FEE9AE00E94161360E88BA9D4
:103640000E94291366C0FE01EB52FF4F80812813B0
:1036500060C03196808138135CC060E88DED9AE0DF
:103660000E9416138D85811107C08E85811104C0BB
:103670008F85882309F44DC08BA9813A09F049C090
:103680000E9446132B8B3C8B4D8B5E8B8D8581115D
:1036900003C08F85882379F08FA990E0982F882721
:1036A0002EA9822BA0E0B0E028ADA22B8F8B988FA3
:1036B000A98FBA8F11C08E85882371F08EA990E0F2
:1036C000982F88272DA9822BA0E0B0E02FA9A22B4C
:1036D0008F8B988FA98FBA8F4F89588D698D7A8D6E
:1036E0008B8D9C8DAD8DBE8D481759076A077B0762
:1036F00081F080959095A095B09584239523A6237D
:10370000B7238F8F98A3A9A3BAA34B8F5C8F6D8F1C
:103710007E8FCE010E945D1811C0FB01ED019B96CA
:1037200080E401900D928A95E1F729A93AA9822FA8
:1037300090E0932B019709F086CF1ACEDF91CF91BD
:103740001F910F91FF90EF9008952F923F924F920B
:103750005F926F927F928F929F92AF92BF92CF9221
:10376000DF92EF92FF920F931F93CF93DF93EC01C1
:103770005B01142F0E944613222E332E442E552E09
:10378000CFA0D8A4E9A4FAA4D201C1018C199D0943
:10379000AE09BF0987399105A105B1055CF40E9406
:1037A0004613222E332EC6018A569F4F8219930943
:1037B0000E945713DE01A053BF4FFE01E153FF4F9C
:1037C0006E817F81EC900081212FA5018C819D81EC
:1037D0000E94DE100E9446132FA338A749A75AA7BC
:1037E000DF91CF911F910F91FF90EF90DF90CF90DD
:1037F000BF90AF909F908F907F906F905F904F9011
:103800003F902F900895FC01EA58FF4F660F6083A8
:10381000BC0165597F4F42E30E94A51B08956111C9
:1038200003C00E94031C0895E62FF0E0EE57F34F0B
:10383000E491DC01AA58BF4FEF70EE0F2C91E22B00
:10384000EC93BC0165597F4F42E30E94A51B08958C
:10385000CF93DF9300D000D000D0CDB7DEB723E503
:10386000298324EF2A8322E42B8323E02C831D82E7
:103870001E8246E0BE016F5F7F4F0E94A51B269609
:103880000FB6F894DEBF0FBECDBFDF91CF91089584
:103890002F923F924F925F926F927F928F929F9260
:1038A000AF92BF92CF92DF92EF92FF920F931F934E
:1038B000CF93DF93EC015B01142F0E944613222E5D
:1038C000332E442E552ECFA0D8A4E9A4FAA4D201B9
:1038D000C1018C199D09AE09BF0987399105A10560
:1038E000B1055CF40E944613222E332EC6018A567F
:1038F0009F4F821993090E945713DE01AC52BF4FAC
:10390000FE01ED52FF4F6E817F81EC900081212FEF
:10391000A5018C819D810E94DE100E9446132FA379
:1039200038A749A75AA7DF91CF911F910F91FF9018
:10393000EF90DF90CF90BF90AF909F908F907F904F
:103940006F905F904F903F902F9008958F929F922D
:10395000AF92BF92CF92DF92EF92FF92CF93DF931D
:10396000EC018A89813109F43FC0823121F0813034
:1039700009F0BEC098C00E944613822E932EA42E3A
:10398000B52E8BA19CA1ADA1BEA1881A990AAA0A45
:10399000BB0A85E688169104A104B1040CF4A8C002
:1039A0008AE090E00E9457138EE292E00E94F212A9
:1039B0008AE090E00E945713FE01BB9680E4DF018D
:1039C0001D928A95E9F78FE78AAF8BAF8CAF8DAFE9
:1039D000CE010E94281C81E18A8B0E9446132BA3F2
:1039E0003CA34DA35EA384C00E944613822E932E57
:1039F000A42EB52E8BA19CA1ADA1BEA1881A990AB7
:103A0000AA0ABB0AB9EE8B16B3E09B06A104B10467
:103A10000CF46EC08889803561F48AE090E00E94E1
:103A2000571360E886ED99E00E94161381E08D87B8
:103A300019C08E3441F460E884EB99E00E941613BB
:103A400081E08F870FC08D3469F40E9446132BA349
:103A50003CA34DA35EA360E886E999E00E9416139B
:103A600081E08E871F8A188E198E1A8E1B8E1C8EEF
:103A70001D8E1E8E1F8E18A219A21AA2EC81FD8126
:103A8000E85BFF4F84EF80830E94BF120E94031601
:103A900061E0CE010E940F1C81E08A8B88E090E0FB
:103AA0000E94AD1325C08E85882311F10E94461314
:103AB000822E932EA42EB52E8BA19CA1ADA1BEA1CA
:103AC000881A990AAA0ABB0A81EA88168FE0980622
:103AD000A104B1046CF0BE0163567F4F42E3CE01F6
:103AE0000E94481C0E9446132BA33CA34DA35EA337
:103AF000DF91CF91FF90EF90DF90CF90BF90AF908C
:103B00009F908F900895FC01E056FF4F608331969F
:103B1000408331962083BC0163567F4F42E30E946D
:103B2000481C0895CF92DF92EF92FF920F931F935C
:103B3000E42F042F152F262F372F772737FD7A955F
:103B4000632F522F412F6901FF24D7FCF094EF2CF3
:103B50002E2F6C2D0E94831D1F910F91FF90EF90CF
:103B6000DF90CF900895DC011296ED91FC911397B0
:103B7000309711F009950895FC012685222339F02C
:103B800040E050E06FEF70E00E94921D089561E008
:103B90000E940F1C0895EE0FFF1F0590F491E02D79
:103BA00009942A0D3B1D4C1D5D1D6E1D7F1D801F40
:103BB000911F08950024A7FD00942A0F301D401D79
:103BC000501D601D701D801D901D08952A193B0910
:103BD0004C095D096E097F09800B910B08952A1528
:103BE0003B054C055D056E057F058007910708952F
:103BF000FB01DC014150504030F08D910190801963
:103C000019F40020B9F7881B990B0895F894FFCF99
:103C1000012B012B014F72656E0033313035004EA0
:103C2000696E74656E646F004E696E74656E646F64
:103C30002052564C2D434E542D30312D5452004EAF
:103C4000696E74656E646F2052564C2D434E542D30
:103C500030312D5543004E696E74656E646F20528D
:103C6000564C2D5742432D303100576972656C65B3
:103C7000737320436F6E74726F6C6C657200415485
:103C800000204932432020436F6D6D756E6963617A
:103C900074696F6E204572726F7220003D0D0A00CC
:103CA0003D002D0D0A002D001B0020416363656C53
:103CB00065726F6D65746572203A200020477972D5
:103CC0006F73636F7065203A200042756666657297
:103CD000204F76657272756E004D6F6E73747275DB
:103CE000636B547275636B204C6F67696320426F1E
:103CF000617264204669726D776172652076312E3B
:103D0000300057616974696E6720666F7220576171
:103D10006B65204576656E74004843492057616B9A
:103D200065204576656E74205265636569766564C5
:103D30000048432D303520416C6976652100496E7D
:103D40003100000000005419A61C8C17B817B31DD1
:00000001FF
